:020000040800F2
:10000000400B002045010008B91400084314000803
:100010006D140008210A0008B92000080000000043
:10002000000000000000000000000000C91C0008E3
:10003000B310000800000000AB150008CD1C00083C
:10004000BB200008A91500086D1D0008731A0008E0
:1000500009110008DD190008C5100008C9100008C2
:10006000CB100008CD100008CF1000089D1000082C
:100070009F100008A1100008A3100008A510000898
:10008000A7100008A91000081D0A00084B2000084E
:100090004D200008690C0008ED0C0008D110000884
:1000A0006F1D0008751D0008731D0008711D0008F4
:1000B000771D0008791D00087B1D00084714000803
:1000C000451400084B14000849140008331C0008AC
:1000D000351C0008A91D0008F51D0008411E000878
:1000E000C7100008711A000849200008831D000885
:1000F000891D0008871D0008851D00081F0A0008CB
:100100003D110008311C00087D1D0008371C000847
:10011000A31D0008A51D00087F1D0008811D000803
:10012000AB100008AD100008AF100008B1100008B7
:10013000DFF80CD000F03CFC00480047F524000834
:10014000400B00200048004731010008D2B201E016
:1001500000F8012B491EFBD270470022F6E710B5CC
:1001600013460A4604461946FFF7F0FF204610BD25
:10017000421E12F8013F002BFBD111F8013B02F89F
:10018000013B002BF9D17047421C10F8011B0029DC
:10019000FBD1801A7047F0B480EA0102D40F42000C
:1001A000B2EB410F02D20246084611464A0042D045
:1001B000C30DDDB2C1F3C752AD1A202D35DAC1F33C
:1001C000160141F4000204B15242C5F1200602FAC0
:1001D00006F12A411044B3EBD05F23D0C4B1012D06
:1001E000A0EBC35009DCF0BC4FF0004202EAC3525E
:1001F00000F50000DBB200F078BA400000F180703A
:1002000000EBC350A0F1807040EAD170490009E0D2
:10021000490841EAC071A0EBC35000F50000400856
:1002200000EBC350F0BC00F057BA6142012202EB70
:100230004101001BF6E7F0BC704781F00041AAE7DE
:1002400080F00040A7E780EA010210B502F0004309
:10025000400026D04A0023D04FEA106101EB126122
:10026000C0F35600C2F3560240F4000042F400020C
:10027000A0FB0220A1F17F014FEA0040140401D04D
:1002800000F1010050EA124001D44000491EC2B200
:100290000C0604EBD010401C4008802A02D003E07A
:1002A000002010BD20F00100002900DA00201843D2
:1002B00010BD30B480EA010202F0004530F0004287
:1002C00021F0004015D0A0B1C0F3C753C2F3C7540A
:1002D000C2F31601C0F31600E41A41F4000140F421
:1002E00000027D34914201D3641C00E04900002CDF
:1002F00002DA30BC002070474FF400000023914226
:1003000001D3891A034340084FEA4101F7D151B1A3
:10031000914202D14FF0004105E002D24FF00101BD
:1003200001E06FF0010103EBC450284430BC00F041
:10033000D3B92DE9FE4F804681EA0300C00F0C4679
:10034000009021F0004123F00045B8EB0200A941E4
:1003500005D24046214690461C460B46024623F0F5
:100360000040104304D14046214603B0BDE8F08F61
:10037000270DC7F30A00C3F30A510290401A0190F7
:10038000402866DAC3F3130040F4801B00989246BD
:1003900020B10023D2EB030A63EB0B0B0198594603
:1003A000C0F14002504600F066F906460D46504640
:1003B0005946019A00F07EF910EB080061410024D3
:1003C00087EA115284EAE7731A433BD0009A3AB3A2
:1003D000019A012A4FEA075210DC001B61EB02016F
:1003E0004FF0004202EA0752CDE90042001C41F5FD
:1003F000801132462B4600F0B2F9B6E7001B61EBE4
:100400000201001C41F5801300185B412018A2F581
:10041000001747EB030140EAD570B6196D4111E0B2
:100420006D084FEA360645EAC0754FEA0752001BD1
:1004300061EB0201001C41F5801149084FEA3000D0
:100440000019514132462B4603B0BDE8F04F00F091
:1004500079B90098012240000023D0EB020263EB3F
:10046000E073009821464FEAE074B8EB000061EBBE
:100470000401E9E783F000435BE781F0004158E7BE
:100480002DE9FE4F81EA030404F0004421F000410D
:1004900000944FF0000B23F0004350EA010402D017
:1004A00052EA030404D10020014603B0BDE8F08FF6
:1004B000C3F30A54C1F30A552C44A4F2F334019453
:1004C000A0FB0254C1F3130141F48011C3F31303E1
:1004D00043F4801301FB024400FB034E840A970A95
:1004E00044EA815447EA8357A4FB076802958D0AC2
:1004F00005FB07854FEA932C04FB0C542705029D4E
:100500004FEA065847EA1637B5EB08056EEB070CBD
:10051000870E920E47EA811742EA8312A7FB020177
:10052000B6EB0B0164EB00042B0D43EA0C335E18B1
:1005300044EB1C50DA465146E7FB0201C5F31304B5
:100540004FEA0B3343EA14534FEA0432019C43EA67
:100550000603A4F10C040294009CCDE900B400F061
:10056000FEF8A2E7C10F80EAE0700844CA079623AC
:10057000002100F0BAB896230022114600F0B5B869
:1005800000F0004220F00040C10DC0F3160040F41E
:1005900000007F2901DA00207047962903DCC1F1B1
:1005A0009601C84001E096398840002AF4D04042C4
:1005B000704720F00040C10DC0F3160040F4000069
:1005C0007F2901DA00207047962903DCC1F19601EA
:1005D000C840704796398840704770B5C1F30A52D9
:1005E00001F000450024C1F3130140F2FF3341F450
:1005F00080119A4201DA002070BD40F233439A42E2
:10060000A2F2334203DC524200F044F800E0904092
:100610002C43F1D0404270BD00F0004230F0004069
:100620000AD0C10D01F56071C0F3160042EA015114
:10063000C20840071143704700200146704701F08F
:10064000004330B421F0004150EA010206D00A0D07
:10065000A2F56072C1F31301002A02DC30BC002055
:100660007047440F44EAC104C100E01830BC00EBFD
:10067000C25000F031B8202A04DB203A00FA02F11F
:10068000002070479140C2F1200320FA03F3194380
:1006900090407047202A04DB203A21FA02F0002122
:1006A000704721FA02F3D040C2F120029140084382
:1006B00019467047202A06DBCB17203A41FA02F090
:1006C00043EAE07306E041FA02F3D040C2F12002AF
:1006D00091400843194670470029A8BF7047401C45
:1006E000490008BF20F00100704710B4B0FA80FC48
:1006F00000FA0CF050EA010404BF10BC704749B185
:10070000CCF1200421FA04F411FA0CF118BF0121F4
:1007100021430843A3EB0C01CB1D0106000A002B6B
:10072000BEBF002010BC704700EBC350104400292E
:10073000A4BF10BC7047401C490008BF20F0010056
:1007400010BC704710B5002B08DA401C41F10001C5
:1007500092185B411A4301D120F0010010BD2DE930
:10076000F04D92469B4611B1B1FA81F202E0B0FA27
:1007700080F220329046FFF77EFF04460F4640EAA3
:100780000A0041EA0B0153465A46084303D120466A
:100790003946BDE8F08D114653EA010015D0C8F185
:1007A00040025046FFF776FF05460E465046594632
:1007B0004246FFF760FF084301D0012000E000201F
:1007C000054346EAE0762C4337430A984FEA445300
:1007D000A0EB08004FEAD4240A304FF0000244EAAC
:1007E00047544FEAD72502D500200146D1E701053D
:1007F00010196941DDE9084500196941BDE8F04D6E
:10080000A0E72DE9F04D81EA030404F0004B21F04C
:10081000004514464FF0000A23F0004150EA05025B
:1008200020D054EA01021DD0C5F30A570246C5F391
:100830001303C1F31300C1F30A5640F4801543F4C7
:100840008013A7EB0608101BD64608F2FD3873EBA1
:10085000050002D308F1010801E092185B41B8F1EC
:10086000000F03DA00200146BDE8F08D00204FF4B0
:100870008011064684460EE0171B73EB050705D36F
:10088000121B63EB050306434CEA010C49084FEACF
:10089000300092185B4150EA0107EDD152EA0300A3
:1008A00012D082EA040083EA0501084303D1002242
:1008B0004FF0004308E0101BAB4102D2012200239D
:1008C00002E06FF0010253101AEB06004CEB0851E6
:1008D00010EB0A0041EB0B01BDE8F04DFFF732BF12
:1008E00070B521F0004303430CD0C1F30A55002436
:1008F000D5EB040564EB0403D617AD1AB34102DB54
:100900000020014670BD201841EB025170BD2DE959
:10091000F04D00231A461B1A8A4103DB00200146D2
:10092000BDE8F08DC1F30A52C1F3130141F4801503
:100930004FF0000BD10702D100186D41521E002765
:10094000044640F2FF11384601EB620A3E468046FB
:10095000024600204FF48011FFF79CFEC21971413E
:10096000BB1846EB0100B4EB030C75EB000C04D391
:10097000E41A65EB000517460E46241908F101003C
:100980006D4180463428E3DDF91946EB0600091B6A
:10099000A84103D24FF0FF32134601E00022134674
:1009A0001BEB070046EB0A51BDE8F04DFFF7CABE4E
:1009B000064C074D06E0E06840F0010394E80700AC
:1009C00098471034AC42F6D3FFF7B6FB282800084E
:1009D0004828000810B5104C00224021204600F0A5
:1009E000C0FC00228021204600F0BBFC01F000FD8D
:1009F00001224021204600F0B4FC01F0F9FC002265
:100A00004021204600F0ADFC20460122BDE8104008
:100A1000802100F0A6BC0000000C01407047704728
:100A2000FEE7000070B500F033F8184800F05FF9F9
:100A3000164800240125047044708470C570057147
:100A400044718471C4710B2101720421417202212D
:100A5000418100F0A1F80D484FF422410C3005709F
:100A60004570847081804FF45E41C18042F26041E4
:100A7000018148F6C02141818481857300F01EF810
:100A8000BDE870400121022000F07AB82401002066
:100A900010B501214C06204600F090FE2046BDE82E
:100AA0001040002100F08ABE202110B102480160F0
:100AB00070470148001FFAE710640040F0B5027863
:100AC000012191402D4A89B2136843F0010313605C
:100AD0002A4C1C3423688B432360284B274D87788E
:100AE0000C3340352E1DA7B91F688F431F60C78880
:100AF000B0F80AC047EA0C4790F800C045F83C70CF
:100B00008788B0F808C047EA0C4790F800C046F85C
:100B10003C708778012F0ED11F680F431F60436818
:100B200007784FEA334345F83730836805784FEA52
:100B3000334346F83530114B45781B1D002D1D6899
:100B400006D00D431D600D4B8589143315B104E0AB
:100B50008D43F7E71D688D431D608589012D02D106
:100B60001D680D431D60807B012802D12068084369
:100B70002060106820F001001060F0BD00660040A9
:100B8000044A0029116801D0014300E0814311604B
:100B90007047000014640040324910B50022012360
:100BA0000B600B1D1C68E40748D00278012A0A6814
:100BB00046D022F080020A604278012A0A6842D0B8
:100BC00022F040020A608278012A0A683ED022F0B0
:100BD00020020A60C278012A0A683AD022F0100284
:100BE0000A600279012A0A6836D022F008020A60F7
:100BF0004279012A0A6832D022F004020A6082791E
:100C0000C479920742EA0462047A42EA0442447ACE
:100C1000408942EA0452401E024312481C300260DE
:100C20000868012220F0010008609002401E0004C4
:100C3000000CFBD11868C00700D00022104610BD80
:100C400042F08002B7E742F04002BBE742F02002E8
:100C5000BFE742F01002C3E742F00802C7E742F0E4
:100C60000402CBE700640040704700001E4A02EB1C
:100C70000012136813F004030B72136830D0DB0802
:100C80004B60126802F002024A72174A121D02EB10
:100C90000012136803F00F038B721268120ACA74F1
:100CA000114A083202EB00121368CB7213681B0A58
:100CB0000B7313681B0C4B731268120E8A730A4A6B
:100CC0000C3202EB00121368CB7313681B0A0B740F
:100CD00013681B0C4B741268120E8A74FFF7E4BE83
:100CE0005B0D0B60CDE70000B06500407047002150
:100CF000017041708170C170017141718171C17168
:100D000003210172022141720121418170470000DB
:100D100030B52A4A002113685B0108D41168090123
:100D200001D5012103E01168C9003BD50221244A05
:100D300002EB0112136803F001031360037A83B31B
:100D40004468E500456014682C43457A2B431C43F6
:100D50001460837A03F00F038372194B1B1D03EB9E
:100D600001131C6824F00F041C601C68857A2C4356
:100D70001C60C37AC46843EA0423114C083404EBB2
:100D800001142360C37B006943EA00200C4B0C3341
:100D900003EB01131860106840F001001060084672
:100DA00030BD01E00421FAE703885C0504601368A4
:100DB0002343447A23431360CBE7000008640040D8
:100DC000806500402DE9FC5F00252F462E46AA468F
:100DD000AB4601952E4C009500F04CFE3846E16C78
:100DE000FFF7D9F907463046216DFFF7D4F90646DB
:100DF0005046616DFFF7CFF982465846616EFFF7A6
:100E0000CAF98346A16E0198FFF7C5F90190E16E1A
:100E10000098FFF7C0F900903E2000F04BF96D1CE0
:100E2000EDB20A2DD8D3DFF86C8038464146FFF783
:100E300040FA054641463046FFF73BFA81464146B7
:100E40005046FFF736FA824641465846FFF731FAD8
:100E5000834641460198FFF72CFA0D4F064680372E
:100E600041460098FFF725FA85F00041216789F097
:100E7000004161678AF00041A1678BF00041E167A2
:100E800086F0004180F00040C7E90010BDE8FC9FFB
:100E900044000020000020412DE9F84F002500F01B
:100EA000E9FD774C2846616E0091FFF7C6F9FFF720
:100EB000B3FBDFF8D081DFF8D09142464B46FFF715
:100EC000DFFAFFF7BCFBA16E06468B462846FFF70C
:100ED000B4F9FFF7A1FB42464B46FFF7D1FAFFF703
:100EE000AEFBE16E07468A462846FFF7A6F9FFF7F4
:100EF00093FB42464B46FFF7C3FAFFF7A0FB0546BC
:100F000004F180000099C0F810A0C0E9021B30462F
:100F1000616BFFF740F9A0623846A16BFFF73BF920
:100F2000E0622846E16BFFF736F92063216D084641
:100F3000FFF789F9616D05460846FFF784F9014618
:100F40002846FFF728F9FFF767FB01F013FBFFF7CF
:100F500076FB0146E06C0646FFF7ABF9FFF75CFB5A
:100F600001F034F9FFF76BFB054631460846FFF701
:100F70006AF9616D06460846FFF765F90146304695
:100F8000FFF709F9FFF748FB01F0F4FAFFF757FB09
:100F90000146206D0646FFF78CF9FFF73DFB01F097
:100FA00015F9FFF74CFBE16C80460846FFF74BF95B
:100FB000074631460846FFF746F901463846FFF72F
:100FC000EAF8FFF729FB01F0D5FAFFF738FB0146F5
:100FD000606DFFF76EF9FFF71FFB01F0F7F8FFF701
:100FE0002EFB06462846FFF717FBDFF8A090DFF838
:100FF000A0A04A465346FFF743FA07460D46A06AAB
:10100000FFF70AFBDFF88CB0234B5A46FFF738FA9C
:101010003A462B46FFF78DF9FFF711FB6063404618
:10102000FFF7FAFA4A465346FFF72AFA07460D46F3
:10103000E06AFFF7F1FA5A46174BFFF721FA3A46F2
:101040002B46FFF776F9FFF7FAFAA0633046FFF771
:10105000E3FA4A465346FFF713FA06460D46206B5D
:10106000FFF7DAFA5A460C4BFFF70AFA32462B46DC
:10107000FFF75FF9FFF7E3FAE063BDE8F88F0000E0
:10108000440000205839B4C876BEAF3F9A99999968
:101090009999A93F14AE47E17A14EE3F7047704723
:1010A0007047704770477047704770477047704788
:1010B000704770470249088008880028FCD17047B3
:1010C0003600002070477047704770477047704780
:1010D00010B54FF400742146064800F03BF918B9EA
:1010E00005480169491C01612046BDE8104000F037
:1010F00005B80000000C01403000002001490860E4
:1011000070470000140401407047000004490A6859
:1011100022F010020A600A6802430A607047000069
:101120000020024004490A6802F038020A600A6896
:1011300002430A6070470000002002407047000030
:101140002DE9F0470121424800F0E0F8414C4FF40E
:10115000017003252080DFF800A1A5701826E67035
:101160002146504600F082F84FF4806020804FF016
:10117000040984F803902146504600F077F8FF20D8
:1011800020800027E7702146504600F06FF84FF4AA
:10119000006020804FF0480884F8038021465046C4
:1011A00000F064F84FF480502080E67021465046ED
:1011B00000F05CF8C8202080DFF8A0A0A570102601
:1011C000E6702146504600F051F87001208084F806
:1011D00003902146504600F049F84FF470402080BB
:1011E00084F803802146504600F040F82580E770DF
:1011F0002146504600F03AF870022080DFF86090F7
:10120000A570E6702146484600F030F84CF2C03038
:10121000208084F803802146484600F027F83F20CC
:101220002080E7702146484600F020F84FF6FF770F
:101230002780E670A57021460A4800F017F827803D
:10124000E670A5702146BDE8F047074800F00EB8EB
:10125000000430000800002000080140000C01409C
:10126000001001400014014000180140F0B5CA7898
:10127000002502F00F03D20601D58A7813430C78BB
:101280004FF00F0E0122ECB1D0F800400F8802FAA7
:1012900005F63740B74211D14FEA850C0EFA0CF72C
:1012A00024EA070703FA0CF43C43CF78282F02D036
:1012B000482F02D002E0466100E006616D1C082D57
:1012C000E4D304600C88FF2C1ED944685FF000064C
:1012D00006F1080702FA07F50F882F40AF420FD139
:1012E0004FEA860C0EFA0CF7BC4303FA0CF73C43AA
:1012F000CF78282F00D14561CF78482F00D10561E4
:10130000761C082EE4D34460F0BD0000F0B5104D0B
:101310006A68440D260184B2C0F30157B440C0F39B
:101320000343032F05D0C0020AD50320984082430F
:1013300007E0686822F0706320F07060686002E087
:10134000A24342F0706301B123436B60F0BD000023
:10135000000001400246002092680A4200D00120AD
:1013600070470AB1016170474161704710B5064C82
:101370000146204600F064FE4021204600F0D8FDE2
:101380000028F9D010BD00000038014070B50446B7
:10139000074D09E0284600F053FE4021284600F0A2
:1013A000C7FD0028F9D0641C21780029F2D170BD56
:1013B0000038014038B53D208DF80000002401229E
:1013C0006946192001F09AF906208DF800000122E3
:1013D00069461A2001F092F98DF800400122694611
:1013E0001B2001F08BF98DF80040012269461C207A
:1013F00001F084F903208DF800000122694668207D
:1014000001F07CF930208DF8000001226946692046
:1014100001F074F98DF80040012269466B2001F05B
:101420006DF98DF80040012269466C2001F066F9E3
:1014300001208DF8000002466946382001F05EF96F
:1014400038BDFEE7704770477047704710B5002001
:1014500000F06AFC42F2283000F084FC012000F029
:1014600075FCBDE81040012000F05EBCFEE7000006
:1014700010B5104C002240212046FFF772FF0122D8
:1014800080212046FFF76DFF00F0B2FF01224021CE
:101490002046FFF766FF00F0ABFF00224021204608
:1014A000FFF75FFF20460122BDE810408021FFF7D3
:1014B00058BF0000000C0140704738B500214FF0C4
:1014C000006000F067F825208DF8000001248DF8F9
:1014D000014000258DF802508DF80340684600F069
:1014E00011F814208DF800008DF801508DF802508D
:1014F0008DF80340684600F005F84FF4C06000F036
:101500003FF838BDF0B50F22C478017801234FF0C1
:10151000E0253CB3184C2468467804F4E064C4F534
:10152000E064240AC4F10407E2408478BE40144019
:10153000344322018C07E70E21F003040F49BA401F
:1015400066183168FF24BC40A1432240114331603A
:10155000007800F01F018B40400905EB8000C0F8C7
:101560000031F0BD01F01F008340480905EB800009
:10157000C0F88031F0BD00000CED00E000E400E0B8
:101580000249084302490860704700000000FA055C
:101590000CED00E0024A114001430248016070472F
:1015A00080FFFF1F08ED00E07047704710B50FA0E7
:1015B000FFF7ECFE0E4C606BFEF7E2FF00F0E5FB80
:1015C0002C20FFF7D3FEA06BFEF7DAFF00F0DDFB67
:1015D0002C20FFF7CBFEE06BFEF7D2FF00F0D5FB2F
:1015E000BDE8104003A0FFF7D1BE00000A000000D4
:1015F000440000200D00000070B524480025244957
:101600000068244E2C46B0F17E5F02DC10F1814F61
:101610002CD9FEF718FEFEF7B3FF002800DA40428F
:1016200081B2B1F5804F01D343F6FF711A4840F201
:10163000F732C0E900240472447208228272C47234
:101640000473447384733278D20042EA0112C27385
:10165000C1F307120274090B41748474FFF758FB3D
:101660000E48FF21816140F6FF7103E0204634708F
:10167000D6E76D1C8269FF2A01D18D42F9D38D42D4
:1016800000D184618069C0B270BD0000800000207C
:101690000000C84244000020100100201400002077
:1016A0002DE9F05F394D002740F22310C5E900070E
:1016B0002F726F720820A87236483E46BA463449E7
:1016C0000068FEF7C0FDFEF75BFF334C47F6FF7B7B
:1016D0002168421AE26020605844010AE9722873C6
:1016E0002E4891462A490068FEF7ADFDFEF748FFF7
:1016F0006168411A2161606088465844010A697333
:10170000A873274822490068FEF79DFDFEF738FFC1
:10171000A168411A6161A0605844020AEA73287402
:10172000B9F1000201DAC9F100020123C82A00DD83
:101730000126B8F1000001DAC8F10000962800DDAA
:10174000761C002900DA4942C82900DD761C012EEA
:1017500001D96B7401E085F811A0564685F812A0F6
:101760000A48FFF7D5FAFF20A06140F6FF7000E0BD
:101770007F1CA169FF2901D18742F9D3874200D19B
:10178000A661A069C0B2BDE8F09F00001001002072
:101790000000C8429C00002014000020A00000208F
:1017A000A4000020044A0029D16901D0014300E0CF
:1017B0008143D1617047000000100240044A0029B3
:1017C000116901D0014300E08143116170470000BD
:1017D00000100240044A0029916901D0014300E051
:1017E00081439161704700000010024010B500F085
:1017F0004BF84FF48034204600F0D6F800F01EF984
:101800001F490128087023D11020FFF77FFC022018
:10181000FFF788FC002000F0BDF8002000F0EAF897
:101820004FF4A06000F0DCF84FF4E011204600F027
:10183000F1F8012000F0E8F8392000F08BF80028DA
:10184000FAD0022000F0F0F800F09CF80828FBD154
:1018500001210C48FFF7A6FF01218803FFF7BAFF1B
:10186000012140F67D00FFF7B5FF01214802FFF797
:10187000B1FF0121BDE810404806FFF793BF00000B
:1018800000000020040006000B48016841F001013F
:1018900001604168094A114041600168084A1140ED
:1018A0000160016821F480210160416821F4FE019A
:1018B0004160002181607047001002400000FFF885
:1018C000FFFFF6FE30B51F494A6812F00C031E4AAE
:1018D00003D0042B01D0082B22D002604A680F23CA
:1018E0001A4C03EA1212A35C0268DA4042604B68A9
:1018F000072505EA1323E35C22FA03F383604B68B0
:1019000005EAD323E35C22FA03F2C26049680323A9
:1019100003EA9131231F595CB2FBF1F1016130BD43
:101920004A68022302F4701203EB92424B6813F4EC
:10193000803F02D04B689B0301D5054B00E0024B72
:101940005A43CAE70010024000127A007C270008C0
:1019500000093D000246002053090949012B0BD024
:10196000022B0BD0D1F8241002F01F020123934068
:101970000B4200D0012070470968F5E7096AF3E7D8
:10198000001002400248406800F00C007047000060
:1019900000100240034A516821F0F00101435160F8
:1019A00070470000001002400B490A6822F48032A0
:1019B0000A600A6822F480220A60B0F5803F07D0EE
:1019C000B0F5802F03D1086840F4A020086070476C
:1019D000086840F48030F9E70010024070470000CA
:1019E000034A516821F4E0610143516070470000EF
:1019F0000010024003494A6822F4605242EAC000E3
:101A000048607047001002400149086670470000B6
:101A100000004242034A5368084323F47C131843EE
:101A20005060704700100240034A516821F00301E2
:101A300001435160704700000010024030B50B4C6C
:101A400040F2FF153120FFF785FF20706068401CD1
:101A50006060207810B96068A842F3D13120FFF7A8
:101A600079FF002800D0012030BD0000D800002000
:101A7000704770472DE9F04F89B008230E22694660
:101A80003B2000F0A8FD9DF808209DF8001004926E
:101A90009DF801009DF802909DF803409DF80C20F0
:101AA00005924FF6FF735F4A03EA012108439DF850
:101AB00004A09DF805809DF809709DF80AB09DF876
:101AC0000B609DF80D505080B0F5004F01D3A0F58C
:101AD0008030FEF747FD53490861079048464FF6AE
:101AE000FF7909EA002244EA02008880B0F5004F3D
:101AF00001D3A0F58030FEF735FD4A4C09EA0A21F2
:101B00006061069048EA01004FF40048E0804045DB
:101B100001D3A0F58030FEF725FD8246A061049830
:101B200009EA002147EA01002081404501D3A0F5E0
:101B30008030FEF717FD09EA0B21606246EA0100DA
:101B40004F466081404501D3A0F58030FEF70AFD85
:101B500081462062059807EA002145EA0100A0813C
:101B6000404501D3A0F58030FEF7FCFC2E4D8346A6
:101B700029460798FEF79DFB4FF07E584146FEF739
:101B80000AFB0746206129460698FEF792FB41466C
:101B9000FEF701FB0646606129465046FEF789FBC9
:101BA0004146FEF7F8FA0546A0612049E069FEF7D4
:101BB00080FBFEF7FEFC80B2FEF7DDFC8046E061B4
:101BC0001A494846FEF775FB824620621749584677
:101BD000FEF76FFBA7656062C4E91765814638466A
:101BE000216FFEF7D8FAE0643046616FFEF7D3FA52
:101BF00020652846A16FFEF7CEFA60654046E16F8A
:101C0000FEF7C9FA074D6066803550462968FEF731
:101C1000C2FAA06648466968FEF7BDFAE06609B0F8
:101C2000BDE8F08F4400002000FC7F460000034325
:101C3000704770477047704710B50D4C01228021E6
:101C40002046FFF78EFB012240212046FFF789FB4B
:101C500000F0CEFB002280212046FFF782FB00F03F
:101C6000C7FB20460022BDE810404021FFF779BBAA
:101C7000000C014010B5134C002240212046FFF714
:101C800070FB002280212046FFF76BFB00F0B0FBC9
:101C9000012240212046FFF764FB00F0A9FB01224E
:101CA00080212046FFF75DFB00F0A2FB00224021CF
:101CB0002046FFF756FB20460022BDE81040802159
:101CC000FFF74FBB000C01407047000010B5144CEB
:101CD000E08810B1E088401EE080208910B12089A2
:101CE000401E2081608910B16089401E6081E068DB
:101CF00010B1401EE06010BD4FF4FA70E060217832
:101D0000084829B100220821FFF72BFB002004E03E
:101D100001220821FFF725FB0120207010BD0000E3
:101D200030000020000C01404FF0E021012804D0D9
:101D3000801C06D0002088617047086940F00100CF
:101D400002E0086920F00100086170474FF0E021CF
:101D50000028086902D040F0020001E020F00200F3
:101D6000086170474FF0E021486170477047704745
:101D700070477047704770477047704770477047AB
:101D80007047704770477047704700B585B0FEF7E1
:101D9000E9FB694600F038FB6846FFF7F7FA05B043
:101DA00000BD70477047000070B50F4D40F22554DC
:101DB0002146284600F0C3F878B1284600F03CF9E7
:101DC0000B4A0A495388C8545088401C5080508898
:101DD000B0F5806F01D10020508021462846BDE833
:101DE000704000F041B8000000380140400300207E
:101DF0003000002070B50F4D40F225542146284692
:101E000000F09DF878B1284600F016F90B4A0A490F
:101E10009388C8549088401C90809088B0F5007FCB
:101E200001D10020908021462846BDE8704000F096
:101E30001BB800000044004040010020300000209A
:101E400070B5084D40F225542146284600F077F839
:101E500010B1284600F0F0F821462846BDE8704051
:101E600000F002B8004800400A0A01219140C9432D
:101E7000018070470029818902D041F4005101E0BE
:101E800021F40051818170472DE9F041244C4FF439
:101E9000964000252060A580E5802581214FA58101
:101EA0000C2666812146384600F080F840F225581D
:101EB00001224146384600F061F801213846FFF71B
:101EC000D9FF4FF416502060A580E5802581164F7C
:101ED000A58166812146384600F068F80122414616
:101EE000384600F04BF801213846FFF7C3FF4FF4A6
:101EF00096502060A580E5802581A58166812146D8
:101F00000A4C204600F052F801224146204600F0DB
:101F100035F82046BDE8F0410121FFF7ABBF0000D6
:101F2000000100200038014000440040004800400B
:101F30000246002012880A4200D00120704730B5C6
:101F400001F01F0201240025C1F3421304FA02F23A
:101F5000012B0FD0022B0FD0838A4FEA112100886A
:101F6000134204FA01F400EA040001D000B1012593
:101F7000284630BD8389F0E7038AEEE710B5C1F348
:101F8000421301F01F040121A140012B07D0022BB5
:101F900007D01430002A026805D00A4304E00C3050
:101FA000F8E71030F6E78A43026010BD30B504460A
:101FB000008A85B00D464CF6FF710840E988014360
:101FC0002182A1894EF6F3100140A8882A89104386
:101FD0006A890A431043A081A08A4FF6FF41084056
:101FE000A9890143A1826846FFF76CFC114884422D
:101FF00001D1039800E00298642200EBC00101EBDC
:10200000001029686FF018058900B0FBF1F0B0FBF3
:10201000F2F109010B096B4300EB8300322303EB60
:102020000010B0FBF2F000F00F000843208105B073
:1020300030BD0000003801408088C0F308007047C0
:10204000C1F30801818070477047704710B586B0B2
:1020500000248DF808408DF80A40009401948DF812
:1020600013408DF80B408DF80C4069462046FEF772
:10207000FDFD01990E48A1F59052353A07D19DF822
:102080000810042903D19DF80A10022902D0046027
:1020900006B010BD012101609DF80B00FFF766F945
:1020A0009DF80C00FFF762F902A0FFF76FF9EFE768
:1020B0002C0000200D0A0000FEE77047490050EA9E
:1020C000C12018BF04204A0D18BF40F0010040F2A3
:1020D000FF72B2EB515F08BF40F00200012808BF59
:1020E000052070472DE9F0414F1E00EBC701044663
:1020F000D1E9000115461E4637F006020DD02A46EA
:102100003346FEF7BDF97F1E04EBC703D3E9002376
:10211000FEF70FF937F00602F1D1022F25D0042F78
:1021200013D0062F18BFBDE8F0812A463346FEF7CC
:10213000A7F9D4E90A23FEF7FCF82A463346FEF74E
:102140009FF9D4E90823FEF7F4F82A463346FEF750
:1021500097F9D4E90623FEF7ECF82A463346FEF752
:102160008FF9D4E90423FEF7E4F82A463346FEF754
:1021700087F9D4E90223FEF7DCF82A463346FEF756
:102180007FF9D4E90023BDE8F041FEF7D2B80000A2
:10219000024A00201107FEF7A3BB000001FDFFFF6C
:1021A00002E008C8121F08C1002AFAD17047704720
:1021B000002001E001C1121F002AFBD1704700007E
:1021C0000149086070470000E00000202DE9F84F49
:1021D00004460D4621F0004000917449814213DC11
:1021E0007349884201DC08D13CB120462946BDE84C
:1021F000F84F4FF00102FEF773BB6E48002DCCBFC5
:102200006D496E49BDE8F88F6D49814211DD6D4918
:102210008142D8BF4FF0FF366DDD20462946FFF7DB
:102220004DFF042808BFFFF7B3FF20462946BDE84D
:10223000F88F6549654F25F00045814233DD6449DB
:10224000814219DD002632464FF080432046294660
:10225000FEF76FF880468A46012220462946FEF79F
:102260003FFB00223B46FEF705F942465346FEF788
:10227000C8FA04460D463EE001260022BA463B4617
:1022800020462946FEF755F880460F460022534661
:1022900020462946FEF7EEF842463B46FEF7B1FAE5
:1022A00004460D4627E04B4981421BDDDFF82881BB
:1022B00002260022434620462946FEF7E1F8002286
:1022C0003B46FEF736F807468A460022434620463C
:1022D0002946FEF7CFF83A465346FEF792FA0446EF
:1022E0000D4608E0032622462B4600203B49FEF718
:1022F00088FA04460D4622462B4610461946FEF73C
:10230000BFF88B46824602460B46FEF7B9F80746F1
:102310000246334888460B4606217844FFF7E2FE22
:1023200052465B46FEF7ACF882462E488B463A464C
:10233000434605217844FFF7D5FE3A464346FEF76B
:102340009FF802460B46002E504659460CDAFDF720
:10235000F0FF22462B46FEF793F801B022462B46AB
:10236000BDE8F04FFEF789B8FDF7E3FF22462B46A4
:10237000FEF786F81C4A7A4402EBC603D3E9002331
:10238000FEF778F822462B46FEF774F8174A7A448F
:1023900002EBC603D3E90023FEF76FF8009A002A88
:1023A000B8BF81F00041BDE8F88F00000000104484
:1023B0000000F07F182D4454FB21F93FFB21F9BFA9
:1023C0000000DC3F0000203E0000F33F0000F03F33
:1023D0000000E63F008003400000F83F0000F0BF2F
:1023E000DA0400009804000036040000FE03000038
:1023F0000020401CC0B20428FBD370470020401CC2
:10240000C0B20428FBD3704770B586B00D460646AF
:10241000FEF7B6F8044614212846FDF79EFE204636
:102420000A22294600F034F816A12846FDF7A0FE3E
:102430002046FEF797F83146FDF702FFFEF7ECF86D
:102440000022114BFEF71CF8FEF7C7F8002800DA4F
:1024500040420A22694600F01BF8002404E00BA168
:102460002846FDF785FE641C6846FDF78DFEC0F129
:102470000100A042F3D869462846FDF779FE06B070
:1024800070BD00002E00000080842E41300000004E
:1024900070B50C4600210D460E46002803D009DA1F
:1024A0000A2A04D006E03020207066701DE0012565
:1024B00040420BE0034690FBF2F002FB1033092B85
:1024C00001DD573300E030336354491C0028F1D15B
:1024D000074825B12D226254491C067001E00122F3
:1024E00002706654204600F037F8204670BD0000A8
:1024F00044000020FFF77AF9FEF7DFFFFEF7A6FFA2
:10250000FEF71EFE012208211048FEF72AFFFFF702
:10251000BBFCFEF74FFFFEF785FA4FF47A70FEF72B
:10252000C9FDFEF74FFC0A493E200880094C2A25C8
:10253000FEF7B2FCFFF73AF820880028F8D1FFF741
:102540005BF8FFF7ADF82580F2E70000000C0140D2
:10255000380000203A00002070B5002506464C1EC9
:1025600005E03119701900F02BF86D1C641EA542AE
:10257000F7DB70BD2DE9F04106460F46FEF7C7F9BF
:1025800004000D4618BF0120284320F00040C0F190
:102590007F6000F1E040C00F0ED0301C18BF01205A
:1025A000384320F00040C0F17F6000F1E040C00FF0
:1025B00004BF0120FFF704FE20462946BDE8F08154
:1025C00002780B785A4002700B785A400A700178F2
:1025D0005140017070472DE9F0411E4614460D46EA
:1025E0000746FFF729FBD02000F062F800F0AAF8B8
:1025F000384600F05DF800F0A5F8FFF71DFBD1208C
:1026000000F056F800F09EF85CB1304600F010F88B
:10261000641E24042870240C03D0FEF7DBF96D1C23
:10262000F3E7FEF725FFBDE8F041FFF723BB00000D
:102630002DE9F0471C4C4FF080084FF00309A4F837
:10264000008084F802904820184FE0700025214651
:102650003846FEF70BFE0026012240213846FEF7E1
:1026600080FE80213846FEF775FE08B16D1CEDB284
:10267000072E01D26806050E002240213846FEF7DB
:1026800070FEFFF7BBFE761CF6B2072EE4D9A4F865
:10269000008084F802901020E07003493846FEF76D
:1026A000E5FD2846BDE8F08708000020000C014049
:1026B0002DE9F0418026104F0546002435420CD00C
:1026C000012280213846FEF74CFE00F03BF8002244
:1026D00080213846FEF745FE06E00022802138467C
:1026E000FEF73FFE00F02EF86806641C050EE4B20B
:1026F000072CE3D9BDE8F081000C014070B514004F
:102700000D4606461CD0FFF797FAD020FFF7D0FF02
:1027100000F018F83046FFF7CBFF00F013F82878E8
:10272000FFF7C6FF00F00EF86D1C641E2404240C95
:10273000F5D1FFF79FFABDE870400520FEF7BABC5F
:1027400070BD000010B50B4C002240212046FEF762
:1027500008FEFFF74DFE012240212046FEF701FE54
:10276000FFF746FE20460022BDE810404021FEF75C
:10277000F8BD0000000C0140020406080000000043
:102780000102030401020304060708090000000017
:102790004FBB610567ACDD3F182D4454FB21E93F79
:1027A0009BF681D20B73EF3F182D4454FB21F93F68
:1027B000E2652F227F2B7A3C075C143326A6813CEE
:1027C000BDCBF07A8807703C075C143326A6913C99
:1027D000C4EB98999999C9BF711623FEC671BCBF05
:1027E0006D9A74AFF2B0B3BF9AFDDE522DDEADBF6D
:1027F0002F6C6A2C44B4A2BF0D5555555555D53F85
:10280000FF8300922449C23F6E204CC5CD45B73F9F
:10281000513DD0A0660DB13FEB0D76244B7BA93F17
:1028200011DA22E33AAD903F48280008000000206A
:10283000E4000000A02100082C290008E40000208A
:102840005C0A0000B02100080000666666666666E5
:102850000000000000000000000000000000000078
:102860000000000000000000000000000000000068
:102870000000000000000000000000000000000058
:102880000000000000000000000000000000000048
:102890000000000000000000000000000000000038
:1028A0000000000000000000000000000000000028
:1028B0000000000000000000000000000000000018
:1028C0000000000000000000000000000000000008
:1028D00000000000000000000000000000000000F8
:1028E00000000000000000000000000000000000E8
:1028F00000000000000000000000000000000000D8
:1029000000000000000000000000000000000000C7
:1029100000000000000000000000000000000000B7
:0C292000000000000000000000000000AB
:0400000508000131BD
:00000001FF
