:020000040800F2
:10000000F0550020450100086D1600086116000833
:100010006B160008550D000841260008000000007E
:10002000000000000000000000000000651900084A
:10003000AF11000800000000271700086919000828
:100040004326000825170008791D00085B190008E1
:10005000F5140008C5180008C11100084D14000867
:100060004F14000851140008531400089911000897
:100070009B1100089D1100089F110008A1110008A4
:10008000A3110008A5110008AF0C00089F2000086C
:10009000A1200008D10F0008D30F00085514000854
:1000A0007B1D0008811D00087F1D00087D1D0008C4
:1000B000831D0008851D00089D1D000865160008A9
:1000C0006316000869160008671600085F19000823
:1000D00061190008391E00082D1F0008551F00086F
:1000E00059120008591900089D200008AF1D00088A
:1000F000B51D0008B31D0008B11D0008B10C0008B3
:10010000291500085D190008A91D000863190008D9
:10011000351E0008371E0008AB1D0008AD1D000885
:10012000A7110008A9110008AB110008AD110008C3
:10013000DFF80CD000F02AFD004800470DB500089C
:10014000F05500200048004731010008A0F14101AE
:10015000192900D82030704738B5D0E90221491E4E
:1001600001EB410102EBC1014268C1EB011102EB5D
:1001700081010268C1EB011102EB8103D0E9042186
:1001800001EB410102EB8101A1F55271302491FB99
:10019000F4F2154D04FB1211554303EBC513009304
:1001A0001A2902DB114A1A4400920C2391FBF3F244
:1001B0000F4C009D544303FB121105EBC4140D4B6F
:1001C000009408E0491E40F2A3245A5C6243009C5C
:1001D00004EBC21200920029F4DC0146684600F0EC
:1001E00061FB009838BD00003F0C0F0080510100FA
:1001F00067C2030048D5000840EA01039B0703D00B
:1002000009E008C9121F08C0042AFAD203E011F855
:10021000013B00F8013B521EF9D27047D2B201E017
:1002200000F8012B491EFBD270470022F6E710B5FB
:1002300013460A4604461946FFF7F0FF204610BD54
:10024000CAB2401E10F8011F8A4202D00029F9D11B
:1002500000207047421C10F8011B0029FBD1801AB6
:10026000704710B5002200E0521C835C8C5CA342F6
:1002700001D1002BF8D1D8B2E1B2401A10BD03462B
:1002800011F8012B00F8012B002AF9D1184670470C
:1002900030B505460020034600E05B1C934205D2C2
:1002A000EC5CC85C201A01D1002CF6D130BDF0B452
:1002B00080EA0102D40F4200B2EB410F02D20246A3
:1002C000084611464A0042D0C30DDDB2C1F3C75201
:1002D000AD1A202D35DAC1F3160141F4000204B144
:1002E0005242C5F1200602FA06F12A411044B3EB4E
:1002F000D05F23D0C4B1012DA0EBC35009DCF0BC0A
:100300004FF0004202EAC35200F50000DBB200F0F9
:1003100012BB400000F1807000EBC350A0F1807070
:1003200040EAD170490009E0490841EAC071A0EBF8
:10033000C35000F50000400800EBC350F0BC00F0D3
:10034000F1BA6142012202EB4101001BF6E7F0BC69
:10035000704781F00041AAE780F00040A7E780EAFB
:10036000010210B502F00043400026D04A0023D01D
:100370004FEA106101EB1261C0F35600C2F356025E
:1003800040F4000042F40002A0FB0220A1F17F0132
:100390004FEA0040140401D000F1010050EA12407D
:1003A00001D44000491EC2B20C0604EBD010401C20
:1003B0004008802A02D003E0002010BD20F0010098
:1003C000002900DA0020184310BD420005D0C0F318
:1003D000C7525242914201DC0020704700EBC150ED
:1003E00070472DE9FE4F804681EA0300C00F0C469E
:1003F000009021F0004123F00045B8EB0200A94134
:1004000005D24046214690461C460B46024623F044
:100410000040104304D14046214603B0BDE8F08FB0
:10042000270DC7F30A00C3F30A510290401A019046
:10043000402866DAC3F3130040F4801B009892460C
:1004400020B10023D2EB030A63EB0B0B0198594652
:10045000C0F14002504600F0F4F906460D46504601
:100460005946019A00F00CFA10EB08006141002493
:1004700087EA115284EAE7731A433BD0009A3AB3F1
:10048000019A012A4FEA075210DC001B61EB0201BE
:100490004FF0004202EA0752CDE90042001C41F54C
:1004A000801132462B4600F080FAB6E7001B61EB64
:1004B0000201001C41F5801300185B412018A2F5D1
:1004C000001747EB030140EAD570B6196D4111E002
:1004D0006D084FEA360645EAC0754FEA0752001B21
:1004E00061EB0201001C41F5801149084FEA300020
:1004F0000019514132462B4603B0BDE8F04F00F0E1
:1005000047BA0098012240000023D0EB020263EBBF
:10051000E073009821464FEAE074B8EB000061EB0D
:100520000401E9E783F000435BE781F0004158E70D
:100530002DE9FE4F81EA030404F0004421F000415C
:1005400000944FF0000B23F0004350EA010402D066
:1005500052EA030404D10020014603B0BDE8F08F45
:10056000C3F30A54C1F30A552C44A4F2F3340194A2
:10057000A0FB0254C1F3130141F48011C3F3130330
:1005800043F4801301FB024400FB034E840A970AE4
:1005900044EA815447EA8357A4FB076802958D0A11
:1005A00005FB07854FEA932C04FB0C542705029D9D
:1005B0004FEA065847EA1637B5EB08056EEB070C0D
:1005C000870E920E47EA811742EA8312A7FB0201C7
:1005D000B6EB0B0164EB00042B0D43EA0C335E1801
:1005E00044EB1C50DA465146E7FB0201C5F3130405
:1005F0004FEA0B3343EA14534FEA0432019C43EAB7
:100600000603A4F10C040294009CCDE900B400F0B0
:10061000CCF9A2E7C10F80EAE0700844CA0796232C
:10062000002100F088B996230022114600F083B91A
:100630000EB5C10F80EAE0700844CA07002140F2FD
:1006400033438DE80E000A460B4600F0AEF903B0C6
:1006500000BD0EB540F2334102910021CDE90011F9
:100660000A460B4600F0A1F903B000BD00F00042BD
:1006700020F00040C10DC0F3160040F400007F29B7
:1006800001DA00207047962903DCC1F19601C840C9
:1006900001E096398840002AF4D04042704770B596
:1006A000C1F30A5201F000450024C1F3130140F2E6
:1006B000FF3341F480119A4201DA002070BD40F20C
:1006C00033439A42A2F2334203DC524200F0C8F8AC
:1006D00000E090402C43F1D0404270BD00F0004259
:1006E00030F000400AD0C10D01F56071C0F3160072
:1006F00042EA0151C20840071143704700200146F9
:100700007047000030B5002904DB4FF00044404240
:1007100064EB0101002B04DB4FF00044524264EB18
:1007200003038B4208BF824230BD000030B5002970
:1007300004DB4FF00044404264EB0101002B04DB7A
:100740004FF00044524264EB0303994208BF9042C9
:1007500030BD000001F0004330B421F0004150EA08
:10076000010206D00A0DA2F56072C1F31301002A3E
:1007700002DC30BC00207047440F44EAC104C100D1
:10078000E01830BC00EBC25000F0CCB8002801DB10
:10079000C0F10040002901DBC1F1004181427047F6
:1007A000002801DBC0F10040002901DBC1F100415C
:1007B0008842704730B50B460146002020220124B4
:1007C00009E021FA02F59D4205D303FA02F5491B1F
:1007D00004FA02F52844151EA2F10102F1DC30BD35
:1007E0002DE9F05F0546002092469B468846064666
:1007F000814640241BE0284641464746224600F0F9
:100800002FF853465A46C01A914110D31146184644
:10081000224600F016F82D1A67EB01084F462246D3
:100820000120002100F00DF817EB00094E41201EB9
:10083000A4F10104DFDC484631462A464346BDE8C0
:10084000F09F202A04DB203A00FA02F100207047D2
:100850009140C2F1200320FA03F3194390407047FE
:10086000202A04DB203A21FA02F00021704721FA05
:1008700002F3D040C2F1200291400843194670476C
:10088000202A06DBCB17203A41FA02F043EAE07354
:1008900006E041FA02F3D040C2F120029140084341
:1008A0001946704730B503683C22B3FBF2F002FBF7
:1008B00010330B60B0FBF2F302FB13001824486006
:1008C000B3FBF4F004FB10328A60021D0723B2FB75
:1008D000F3F403FB14228A61820002F66C3240F2C8
:1008E000B555B2FBF5F404F144000346486105FB3D
:1008F00014208008C8613B2802D39A0700D0401C0E
:100900000022074C13460A61E25C824203D8801A37
:100910005B1C0B61F8E7401CC860084630BD000056
:1009200060D500080029A8BF7047401C490008BFD7
:1009300020F00100704710B4B0FA80FC00FA0CF00F
:1009400050EA010404BF10BC704749B1CCF1200447
:1009500021FA04F411FA0CF118BF012121430843D4
:10096000A3EB0C01CB1D0106000A002BBEBF00202B
:1009700010BC704700EBC35010440029A4BF10BC4A
:100980007047401C490008BF20F0010010BC7047B0
:1009900010B5002B08DA401C41F1000192185B41B0
:1009A0001A4301D120F0010010BD2DE9F04D92460F
:1009B0009B4611B1B1FA81F202E0B0FA80F2203226
:1009C0009046FFF73EFF04460F4640EA0A0041EA20
:1009D0000B0153465A46084303D120463946BDE829
:1009E000F08D114653EA010015D0C8F1400250467F
:1009F000FFF736FF05460E46504659464246FFF77A
:100A000020FF084301D0012000E00020054346EA12
:100A1000E0762C4337430A984FEA4453A0EB080092
:100A20004FEAD4240A304FF0000244EA47544FEA18
:100A3000D72502D500200146D1E7010510196941EB
:100A4000DDE9084500196941BDE8F04DA0E72DE951
:100A5000F04D81EA030404F0004B21F000451446F8
:100A60004FF0000A23F0004150EA050220D054EA7A
:100A700001021DD0C5F30A570246C5F31303C1F3A3
:100A80001300C1F30A5640F4801543F48013A7EB1A
:100A90000608101BD64608F2FD3873EB050002D39A
:100AA00008F1010801E092185B41B8F1000F03DA88
:100AB00000200146BDE8F08D00204FF4801106466D
:100AC00084460EE0171B73EB050705D3121B63EB7F
:100AD000050306434CEA010C49084FEA300092181E
:100AE0005B4150EA0107EDD152EA030012D082EADD
:100AF000040083EA0501084303D100224FF00043BC
:100B000008E0101BAB4102D20122002302E06FF08B
:100B1000010253101AEB06004CEB085110EB0A00CF
:100B200041EB0B01BDE8F04DFFF732BF70B521F08E
:100B3000004303430CD0C1F30A550024D5EB040550
:100B400064EB0403D617AD1AB34102DB0020014663
:100B500070BD201841EB025170BDC1F30A52C1F3C0
:100B6000130140F2FF3341F480119A4202DA00206F
:100B70000146704740F233439A42A2F2334202DC0C
:100B80005242FFF76DBEFFF75CBE0000064C074DFA
:100B900006E0E06840F0010394E80700984710344D
:100BA000AC42F6D3FFF7C8FA6CD500088CD5000824
:100BB0002DE9F04D00231A461B1A8A4103DB002061
:100BC0000146BDE8F08DC1F30A52C1F3130141F4AF
:100BD00080154FF0000BD10702D100186D41521E55
:100BE0000027044640F2FF11384601EB620A3E46F8
:100BF0008046024600204FF48011FFF731FEC219F3
:100C00007141BB1846EB0100B4EB030C75EB000C13
:100C100004D3E41A65EB000517460E46241908F1C3
:100C200001006D4180463428E3DDF91946EB0600EA
:100C3000091BA84103D24FF0FF32134601E0002206
:100C400013461BEB070046EB0A51BDE8F04DFFF7DA
:100C50009FBE70B501EB020410F8015B15F00703AD
:100C600001D110F8013B2A1106D110F8012B03E045
:100C700010F8016B01F8016B5B1EF9D12B0705D44D
:100C80000023521E0FD401F8013BFAE710F8013B94
:100C900002F10202A1EB030303E013F8015B01F888
:100CA000015B521EF9D5A142D6D3002070BD70471A
:100CB0007047C94301607047C06C80B270470246FC
:100CC000002012680A4200D00120704770B5072446
:100CD00009290AD9C568A1F10A0606EB4606B440FF
:100CE000A543B3401D43C56007E0056901EB41061C
:100CF000B440A543B3401D4305611F23072A09D211
:100D0000446B521E02EB820293409C4391400C4381
:100D1000446370BD0D2A09D2046BD21F02EB82021C
:100D200093409C4391400C43046370BDC46A0D3AE8
:100D300002EB820293409C4391400C43C46270BD1D
:100D40000029816802D041F4800101E021F4800192
:100D500081607047FEE70000F0B54FF480773E02F7
:100D600008231022224C402834D013DC21490728C4
:100D700001F1040528D007DC042827D0052821D05C
:100D8000062800D10F60F0BD082821D02028FAD114
:100D90002360F0BD16490831B0F5806F20D008DC23
:100DA000B84219D0B0F5007FF3D1086820F00200F6
:100DB00019E01049091FB04217D0B0F5003FE8D143
:100DC0000A60F0BD01200EE00E60F0BD2B60F0BDAA
:100DD0002A60F0BD2260F0BD086820F0010002E04A
:100DE000086820F004000860F0BD0B60F0BD000052
:100DF000106400400864004010B501214C062046F4
:100E000000F09EFC2046BDE81040002100F098BC98
:100E1000202110B10248016070470148001FFAE725
:100E200010640040F0B50278012191402D4A89B24A
:100E3000136843F0010313602A4C1C3423688B436E
:100E40002360284B274D87780C3340352E1DA7B9DA
:100E50001F688F431F60C788B0F80AC047EA0C4775
:100E600090F800C045F83C708788B0F808C047EAA1
:100E70000C4790F800C046F83C708778012F0ED1DF
:100E80001F680F431F60436807784FEA334345F8F4
:100E90003730836805784FEA334346F83530114BD5
:100EA00045781B1D002D1D6806D00D431D600D4BA0
:100EB0008589143315B104E08D43F7E71D688D4330
:100EC0001D608589012D02D11D680D431D60807B49
:100ED000012802D1206808432060106820F001003A
:100EE0001060F0BD00660040044A0029116801D07E
:100EF000014300E08143116070470000146400402A
:100F0000324910B5002201230B600B1D1C68E40759
:100F100048D00278012A0A6846D022F080020A608E
:100F20004278012A0A6842D022F040020A608278A0
:100F3000012A0A683ED022F020020A60C278012A03
:100F40000A683AD022F010020A600279012A0A687F
:100F500036D022F008020A604279012A0A6832D0AB
:100F600022F004020A608279C479920742EA04629C
:100F7000047A42EA0442447A408942EA0452401E1A
:100F8000024312481C3002600868012220F0010070
:100F900008609002401E0004000CFBD11868C007D6
:100FA00000D00022104610BD42F08002B7E742F0A8
:100FB0004002BBE742F02002BFE742F01002C3E765
:100FC00042F00802C7E742F00402CBE700640040A9
:100FD000704770470021017041708170C1700171CC
:100FE00041718171C171032101720221417201219C
:100FF0004181704730B52A4A002113685B0108D44B
:101000001168090101D5012103E01168C9003BD530
:101010000221244A02EB0112136803F0010313605A
:10102000037A83B34468E500456014682C43457A2D
:101030002B431C431460837A03F00F038372194B14
:101040001B1D03EB01131C6824F00F041C601C68BB
:10105000857A2C431C60C37AC46843EA0423114C8C
:10106000083404EB01142360C37B006943EA0020C9
:101070000C4B0C3303EB01131860106840F00100B7
:101080001060084630BD01E00421FAE703885C05E2
:10109000046013682343447A23431360CBE70000C2
:1010A00008640040806500401D49002220B10128ED
:1010B0000FD0022830D121E0086800F0010042EA98
:1010C00080000A6802F0020202430868C0F38060F0
:1010D0000CE0086800F4807042EA90100A6802F49C
:1010E000007240EA12220868C0F3C060104313D0B7
:1010F000052801D0072811D000207047086800F4A7
:10110000803042EA90300A6802F4003240EA12422B
:101110000868C0F30070E9E70220704701207047BB
:101120000864004070B50546002002464FF6FF7483
:101130000CE0AB5C58400023C60700D060405B1C4D
:101140004008DBB2082BF7D3521CD2B28A42F0D34C
:1011500070BD00000D4800B581788BB064310591F9
:101160004178491E04910078039009480178029162
:101170004178019180780090002008906846FEF741
:10118000EBFF044908600BB0012000BD7E02002087
:10119000810200203C000020704770477047704774
:1011A0007047704770477047704770477047704787
:1011B0000249086008680028FCD170473C01002003
:1011C00070B5012000F04EF9002830D001211848F8
:1011D00000F03AFA30BB17480168491C0160164D0F
:1011E0002878D0B9154C2178154E164800294FF0B3
:1011F000000104D03160012100F0EBFD09E000F0B6
:10120000E8FD31681048016000681049086001205D
:101210002870207880F0010020700D480D4990F86A
:1012200062000860BDE87040012000F015B970BD93
:1012300000080140200200204D0200200902002089
:101240001002002000040040380100200C020020A1
:10125000A8080020880100202DE9F05F4FF480509D
:1012600000F000F9002874D04FF480515B4800F082
:10127000EBF95B49002438B181F80040BDE8F05F2C
:101280004FF4805000F0E8B856480068DFF8588105
:10129000012550B198F8000046460028EED1534A87
:1012A0001168534800297DD083E00878002871D167
:1012B00050480D70DFF840A10078DFF840B10128F8
:1012C00014D14F4804704F4804709AF8000008B9D0
:1012D0004D4805709BF800004C4A4FF4FA61042811
:1012E00003D0052801D0062800D11160484849499B
:1012F00042690B789A424DD9474A1378012B49D15C
:101300001470464A81461470454A1470007F087074
:1013100044480326444F007801281BD04349204607
:101320000C7002F099FE082007F0AAFF40483E70BA
:101330000078012807D13F483F4904700A2008700F
:10134000072007F09DFF3D48016821F4004101603E
:1013500002E041E03A4804703A4805703A480470A7
:101360009AF80010012903D0D9F8180088B111E0CB
:101370008AF800409BF8000004280BD0052809D00B
:10138000062807D0002002F027FD1A4804701C48E8
:1013900004703E7098F80000444601287FF46EAF58
:1013A000002000E004E002F057FE0220207065E714
:1013B00004700178491C01704FF47A711160017852
:1013C000032904D001780329F1D9047056E70020DD
:1013D00002F042FE357051E7BDE8F09F000C01407D
:1013E0005C00002040000020330000202802002084
:1013F0002C0200206C000020A1000020E50000204D
:10140000A4000020A60000201601002058010020A2
:10141000A808002008020020B60000209300002049
:1014200092000020320000209500002011010020D1
:10143000CF000020E2000020E4000020480200204D
:10144000BD000020000200201201002070477047FC
:1014500070477047704700000149086070470000FE
:1014600014040140064A014600201268044B0A4059
:1014700014331B680B4202D0002A00D001207047B1
:101480000004014030B583791949026853B30B68F1
:1014900093430B600A1D13680468A3431360027929
:1014A0000A441368046823431360114B08331A6815
:1014B0000468A2431A601A1D14680568AC431460DE
:1014C0004479102C05D021440A68006802430A6060
:1014D00030BD196804682143196011680068014330
:1014E000116030BD0079084401689143016030BD4E
:1014F000000401407047000004490A6822F010020D
:101500000A600A6802430A60704700000020024037
:1015100004490A6802F038020A600A6802430A6055
:1015200070470000002002407047002100E0491C85
:101530008142FCD37047000010B58A0721F00304F4
:101540000649130F21440F228C689A4094438C6003
:101550008A68984002438A6010BD00000000014084
:10156000F0B5CA78002502F00F03D20601D58A78BB
:1015700013430C784FF00F0E0122ECB1D0F800406D
:101580000F8802FA05F63740B74211D14FEA850CB1
:101590000EFA0CF724EA070703FA0CF43C43CF7861
:1015A000282F02D0482F02D002E0466100E00661F9
:1015B0006D1C082DE4D304600C88FF2C1ED94468F0
:1015C0005FF0000606F1080702FA07F50F882F40C2
:1015D000AF420FD14FEA860C0EFA0CF7BC4303FA68
:1015E0000CF73C43CF78282F00D14561CF78482FA6
:1015F00000D10561761C082EE4D34460F0BD0000E4
:10160000F0B5104D6A68440D260184B2C0F301574D
:10161000B440C0F30343032F05D0C0020AD5032012
:101620009840824307E0686822F0706320F07060A1
:10163000686002E0A24342F0706301B123436B6033
:10164000F0BD0000000001400246002092680A42FE
:1016500000D0012070470AB10161704741617047B5
:10166000FEE77047704770477047FEE7704700001D
:1016700002490148086070470400FA050CED00E0DB
:10168000F0B50F22C478017801234FF0E0253CB378
:10169000184C2468467804F4E064C4F5E064240A35
:1016A000C4F10407E2408478BE4014403443220170
:1016B0008C07E70E21F003040F49BA406618316821
:1016C000FF24BC40A143224011433160007800F068
:1016D0001F018B40400905EB8000C0F80031F0BDD0
:1016E00001F01F008340480905EB8000C0F88031FD
:1016F000F0BD00000CED00E000E400E0024908430A
:1017000002490860704700000000FA050CED00E097
:10171000024A1140014302480160704780FFFF1FE9
:1017200008ED00E070477047044A0029D16901D0F4
:10173000014300E08143D161704700000010024086
:10174000044A0029116901D0014300E0814311617D
:101750007047000000100240044A0029916901D03E
:10176000014300E081439161704700000010024096
:101770000B48016841F0010101604168094A1140CC
:1017800041600168084A11400160016821F480212C
:101790000160416821F4FE014160002181607047D1
:1017A000001002400000FFF8FFFFF6FE30B51F49B1
:1017B0004A6812F00C031E4A03D0042B01D0082BF8
:1017C00022D002604A680F231A4C03EA1212A35C6B
:1017D0000268DA4042604B68072505EA1323E35CA0
:1017E00022FA03F383604B6805EAD323E35C22FA11
:1017F00003F2C2604968032303EA9131231F595C55
:10180000B2FBF1F1016130BD4A68022302F47012AB
:1018100003EB92424B6813F4803F02D04B689B036A
:1018200001D5054B00E0024B5A43CAE700100240C5
:1018300000127A00A5D4000800093D0002460020ED
:1018400053090949012B0BD0022B0BD0D1F82410DE
:1018500002F01F02012393400B4200D00120704789
:101860000968F5E7096AF3E700100240024840689A
:1018700000F00C007047000000100240034A51685D
:1018800021F0F00101435160704700000010024058
:101890000B490A6822F480320A600A6822F4802226
:1018A0000A60B0F5803F07D0B0F5802F03D10868FB
:1018B00040F4A02008607047086840F48030F9E7E1
:1018C0000010024070470000034A516821F4E061B3
:1018D00001435160704700000010024003494A680C
:1018E00022F4605242EAC000486070470010024093
:1018F000014908667047000000004242034A5368ED
:10190000084323F47C1318435060704700100240D2
:10191000034A516821F00301014351607047000000
:101920000010024030B50B4C40F2FF153120FFF79C
:1019300085FF20706068401C6060207810B9606886
:10194000A842F3D13120FFF779FF002800D0012011
:1019500030BD0000AC0200207047704770477047F0
:1019600070477047704700002DE9F047BB48017889
:1019700009B1491E0170BA48017811B10178491EB8
:101980000170B848016811B10168491E0160B6488C
:10199000016811B10168491E0160B448016811B1C4
:1019A0000168491E0160B248016811B10168491E11
:1019B0000160B048016811B10168491E0160AE487C
:1019C000016811B10168491E0160AC48016811B19C
:1019D0000168491E0160AA48016811B10168491EE9
:1019E0000160A8490A6812B10A68521E0A60A64935
:1019F0000A6812B10A68521E0A60A4490A6812B144
:101A00000A68521E0A60A2490A6812B10A68521E88
:101A10000A60A0490A6812B10A68521E0A609E490B
:101A20000A6812B10A68521E0A609C490A6812B11B
:101A30000A68521E0A60006858B99948016811B1D5
:101A40000168491E01609748016811B10168491E8B
:101A500001609548016811B10168491E0160934910
:101A6000086808B1401E08609148016811B101681A
:101A7000491E0160DFF83C9200258F4999F800303B
:101A800001228E4CDFF838C2DFF838A28E484FF4BE
:101A90007A76012B2CD005600D608C490B6813B150
:101AA0000B685B1E0B608A490B6813B10B685B1EE9
:101AB0000B6088490B6813B10B685B1E0B6086498D
:101AC0000B6813B10B685B1E0B6084490B6813B184
:101AD0000B685B1E0B6082490B6813B10B685B1EC1
:101AE0000B60804B1968E9B31868401E186097E0D6
:101AF000D0F80080734BB8F1000F1F787A4B1B7839
:101B000003D005686D1E056015E094F80080B8F1FB
:101B1000010F10D125708CF800504FF4FA75042B8A
:101B200006D0052B04D0062B02D0012F02D002E0F4
:101B30000D6000E00E600D681DB10B685B1E0B6050
:101B4000ABE721780029A8D122708CF800204FF44F
:101B5000FA61042B09D0052B07D0062B05D0012FE5
:101B60009BD100E003E0066097E7016095E75F49DD
:101B70000D6815B10D686D1E0D605D490D6815B1DC
:101B80000D686D1E0D605B490D6815B10D686D1E09
:101B90000D6059490D6815B10D686D1E0D605749EE
:101BA0000D6815B10D686D1E0D6055490D6815B1B4
:101BB0000D686D1E0D60534D95F83C10012905D13F
:101BC00051490F6817B10F687F1E0F604F490F789A
:101BD0004F49012F04D10F7817B10F787F1E0F7076
:101BE0000978E1B9A969012919D14A490D6815B1E6
:101BF0000D686D1E0D60096889B947490D78032D80
:101C00000DD104250D7089F800208AF800200660A7
:101C1000424822708CF800200570414802701E6016
:101C20004048016811B10168491E13E03E490A6845
:101C300012B10A68521E0A603C490A6812B10A6869
:101C4000521E0A603A490A6812B10A68521E0A60B6
:101C50004EF660210160BDE8F0870000E000002042
:101C6000E70000204001002044010020480100203E
:101C70003C0100204C010020A4010020A80100200C
:101C800040000020AC01002050010020B0010020E5
:101C9000B40100201C020020BC010020280200200A
:101CA0003002002044000020C0010020DC000020A1
:101CB000C40100206C00002058010020A600002074
:101CC000A4000020A1000020540100206C0100208D
:101CD000700100205C0100206001002064010020F0
:101CE0006801002074010020E50000208C01002024
:101CF000900100209401002078010020980100202C
:101D0000B8010020A8080020C8010020120100200E
:101D1000080200200402002000020020140100201C
:101D2000150100207C010020880100208401002092
:101D3000800100204FF0E021012804D0801C06D053
:101D4000002088617047086940F0010002E00869DE
:101D500020F00100086170474FF0E0210028086979
:101D600002D040F0020001E020F00200086170475C
:101D70004FF0E021486170477047704770477047E7
:101D80007047704703480168491C016001210248FF
:101D900000F01CB81002002000040040012101489E
:101DA00000F014B800080040704770477047704753
:101DB0007047704770470029018802D041F08001C8
:101DC00002E040F27F32114001807047C943018236
:101DD00070470029018802D041F0010102E040F281
:101DE000FE32114001807047002A828901D00A43E7
:101DF00000E08A4382817047028802F08F020280ED
:101E0000CA884B881A4303881A4302808A888285CD
:101E10000A88028501228282044A904202D0044A42
:101E2000904201D1097A018670470000002C0140E0
:101E300000340140704770472DE9F041DFF8C08061
:101E400040F225563146404600F0A3F8002851D014
:101E50002C48007801284DD02B4801252B4F0078C5
:101E60000024012802D0022825D043E0284800F0B1
:101E70000DF9C0B22B2800D13D703878012839D136
:101E8000404600F003F92449C3B2224A08681354BB
:101E9000024412F8012C4F2A07D14B2B05D13C707C
:101EA0001E4A1378012B00D11470401C086064286E
:101EB00020D30C601EE03878012800D13C704046E9
:101EC00000F0E4F8C7B21748154A40F2DC53016845
:101ED0000A2F575408D1144F491C99423D70016094
:101EE00000D30460016854540168491C01609942A0
:101EF00000D3046031464046BDE8F04100F032B8FE
:101F0000003801403300002010000020380200207B
:101F100000440040CC1500201C00002037020020A7
:101F2000F00F0020140000209700002070B5084D2D
:101F300040F225542146284600F02BF8002805D011
:101F400021462846BDE8704000F00CB870BD000086
:101F50000044004040F22551014800F003B8000061
:101F6000004800400A0A01219140C943018070479E
:101F70000029818902D041F4005101E021F400518F
:101F8000818170470246002012880A4200D0012059
:101F9000704730B501F01F0201240025C1F3421340
:101FA00004FA02F2012B0FD0022B0FD0838A4FEAE2
:101FB00011210088134204FA01F400EA040001D060
:101FC00000B10125284630BD8389F0E7038AEEE79A
:101FD00010B5C1F3421301F01F040121A140012BF0
:101FE00007D0022B07D01430002A026805D00A431C
:101FF00004E00C30F8E71030F6E78A43026010BDC9
:1020000030B50446008A85B00D464CF6FF71084095
:10201000E98801432182A1894EF6F3100140A88886
:102020002A8910436A890A431043A081A08A4FF687
:10203000FF410840A9890143A1826846FFF7B6FB2A
:102040001148844201D1039800E00298642200EB19
:10205000C00101EB001029686FF018058900B0FB82
:10206000F1F0B0FBF2F109010B096B4300EB8300C7
:10207000322303EB0010B0FBF2F000F00F00084336
:10208000208105B030BD0000003801408088C0F3D9
:1020900008007047C1F3080181807047704770479E
:1020A0002DE9F04F8DB000240794089409940A9408
:1020B00007A920460B9409F0E9F9FE48FE4F07AA4C
:1020C0000460016853181B7B7B54491C016008297C
:1020D000F7D3FA4D0798DFF8E8B3286000F4FE6004
:1020E000B0F5E06F14D1F87803AE3B787A78B97820
:1020F0000FC6B8793A7979798DE80700FB799BF8B2
:102100000020F0A1F94800F09DFAF84808F07AFBA9
:10211000D5F80080DFF8D893F649DFF8DCC3F74E36
:10212000052301254FF6FF7EB8F5DE6F74D019DC6C
:10213000F348DFF8D0A3F44AB8F5A06F6DD008DCFF
:10214000B8F1650F6AD0A8F58078B8F123087DD181
:10215000E3E0A8F5A068B8F1010878D0B8F10F0F56
:10216000F5D112E040F22271A8F2227088456FD0BA
:1021700006DCB8F5E46F6CD010F10108E7D1FEE0A1
:102180000F2867D01028E2D13CE2C9F80030F97975
:10219000DFF878C3CB098CF8003007D001F00301D9
:1021A00001707878DA49C0F30110F2E07B7870466C
:1021B00003F03F010EEA012C397841EA0C01A1F548
:1021C000005149011160002902DC4FF480211160A7
:1021D0008C464FF47A719CFBF1F11160F97897F815
:1021E00002C001F00F0200EA02224CEA020C00EAEF
:1021F0008C0242EA9312C74BA2F5005212011A60F8
:10220000C54B02F5C862B2F5486F1A60C34B01DCDA
:10221000002A04DA1C7003E067E0D7E1C8E01D7013
:102220003A79BF4B02F07F020EEA021040EA111029
:10223000A0F5806064214843BA4A1860D6F80D10B2
:10224000B2F800C0F146B84E614504E0D6E15EE068
:10225000A1E092E0D3E107D8B2F8008001F1140CBC
:10226000C44501D9B1490DE0B2F8008001F1140C68
:10227000C44509D8B2F8008001F1280CC44503D93F
:102280004FF03F41316004E012882831914200D282
:1022900034609846FEF7BEF93168FEF777FA02D847
:1022A0008AF8005001E08AF80040A148D8F80010F0
:1022B00001600C987A79C0F3CF1009EA420210430A
:1022C000BA7902F0030309EA43210843A0F58060CC
:1022D0006421484397490860974902F0FC00800850
:1022E0000870F8799549800153E0C9F80030787892
:1022F000934B00F07F000EEA0022387810431880DC
:102300000880F87900F00F008CF8000080E1C9F82F
:1023100000308C48397801707AE18B4803608B4833
:102320003978016001680902016079780268114317
:1023300001600168A1F5FE41FF3901608448B97868
:102340000160016809020160F978026811430160C7
:102350000168A1F5FE41FF3901607E4839790160CD
:10236000016809020160797902681143016001681E
:10237000A1F5FE41FF3901604AE1774840E196F856
:102380003600012803D0022001F086FD40E13878B4
:10239000724908703CE1724839780170714802292D
:1023A00001D0047034E10570042002F013F92FE12C
:1023B0009B46C9F80030DFF8B09197F800804FF4E1
:1023C000AF7E89F80080A8F14108B8F1050F0CD262
:1023D000DFE808F00305091A1D00FA2301E04FF4B5
:1023E00096730B8001E0A1F800E097F8018089F86E
:1023F0000180A8F146084946B8F1050F0ED2DFE882
:1024000008F0090B1B1D1F004FF4E173E9E74FF4BF
:102410007A73E6E70A2300E014231360BA788A701F
:102420004B3A4FF002084FF00309052A19D2DFE8B2
:1024300002F0090C0F1216001E23EEE72823ECE72A
:102440003223EAE78CF800500BE08CF8008008E0BB
:102450008CF8009005E004228CF8002001E08CF854
:1024600000B0FA78CA70503A052A10D2DFE802F0BC
:102470000305070A0D00047009E0057007E080F805
:10248000008004E080F8009001E0042202703748E8
:10249000007868B1572008712A48374A05703448D7
:1024A00005703448057096F8620010600A7965E09E
:1024B0006AE00000D80000208802002024010020EB
:1024C000180200200D0A2053656E736F7225643A5E
:1024D000202025782025782025782025782025782B
:1024E0002025782025782025780D0A00CC020020B0
:1024F0008C0100207602002052020020A808002053
:10250000550200205D0000205802002054020020E7
:10251000560200205C020020780200207C0200208D
:1025200060020020F0010020E8000020000080BFD1
:1025300068020020640200206D0200206C0200206E
:10254000740200205302002090010020F4010020BA
:10255000F8010020FC010020940100209C000020D4
:102560003100002032000020A102002033000020B2
:102570004D020020CA000020880100202748552A6B
:1025800004D0562A11D10AE0387984E70288521C17
:10259000028003887246934207D3028005E00288D6
:1025A000521E0280028802B905807879303810F016
:1025B000FF00487102D0012803D004E08AF80040EF
:1025C00001E08AF80050B879887121E07878020932
:1025D00013488BF800200178914219D0027011A1A4
:1025E000144800F02FF8134808F00CF908F0BCFE6E
:1025F000B6F8410008F072FE08F0DCFE08E00E4874
:10260000036005E00D4938787A7840EA02200880B6
:102610000220FEF7A1FB0DB0BDE8F08F14020020F0
:10262000190200200D0A53656E736F722049443AF7
:1026300020256400CC020020C801002050020020A8
:10264000FEE770470FB4084B10B504A902AA03981F
:1026500000F042F9044602A9002000F0E0FC204608
:1026600010BC5DF814FB00001F300008490050EA60
:10267000C12018BF04204A0D18BF40F0010040F2ED
:10268000FF72B2EB515F08BF40F00200012808BFA3
:10269000052070472DE9F0414F1E00EBC7010446AD
:1026A000D1E9000115461E4637F006020DD02A4634
:1026B0003346FDF73DFF7F1E04EBC703D3E900233C
:1026C000FDF78FFE37F00602F1D1022F25D0042F3F
:1026D00013D0062F18BFBDE8F0812A463346FDF718
:1026E00027FFD4E90A23FDF77CFE2A463346FDF78F
:1026F0001FFFD4E90823FDF774FE2A463346FDF791
:1027000017FFD4E90623FDF76CFE2A463346FDF792
:102710000FFFD4E90423FDF764FE2A463346FDF794
:1027200007FFD4E90223FDF75CFE2A463346FDF796
:10273000FFFED4E90023BDE8F041FDF752BE0000E2
:10274000024A00201107FEF7F1B9000001FDFFFF6A
:1027500002E008C8121F08C1002AFAD1704770476A
:10276000002001E001C1121F002AFBD170470000C8
:102770000149086070470000C80200202DE9FF5F92
:10278000DDE90220010DDDF838B0024310D10F98C9
:1027900001244CA2012808D0002100980F9BC0E919
:1027A0000021C0E90243BDE8FF9F6FEA0B01F4E797
:1027B000A1F2FF3144F6105041430D140F98012847
:1027C0000ED0A5EB0B00401C4FF000043E4EDFF88E
:1027D000FC90B0F1000AA04605DACAF1000717E044
:1027E000CBF10000F0E7074612E0F80707D02246D9
:1027F000334640464946FDF79BFE804689462246C1
:10280000334610461946FDF793FE04460E467F10E8
:10281000002FEAD1DDE90201BAF1000F42464B4632
:1028200002DAFDF785FE01E0FEF711F904460E46D7
:102830000022274BFDF77AFF03D84FF0FF30014607
:1028400007E00022234B20463146FDF7CAFDFEF784
:1028500084F9102409E0002C0ADB0A220023FDF78A
:10286000BFFF019B30321A55641E50EA0102F2D1BB
:10287000641C019AC4F1110314440F9A012A09D06F
:102880000122084301D15B450FDD4FF0000205F145
:1028900001050DE0084303D1A3EB0B056D1E09E014
:1028A00000204FF0110B0F9088E701DA00226D1E17
:1028B000002A83D000980F99C0E90231C0E9004591
:1028C00071E7000030000000000024400000F03FED
:1028D0000000F0430000E03F2DE9FF4F95B09B461C
:1028E00089460646002512E2252878D10024761C68
:1028F000F94A2746012105943378203B01FA03F079
:10290000104202D00443761CF6E730782A2811D012
:102910006FF02F033078A0F13002092A16D8059AFB
:1029200044F0020402EB820203EB42021044761CE4
:102930000590EFE759F8042B0592002A03DA50427C
:1029400044F40054059044F00204761C30782E289C
:1029500016D116F8010F44F004042A280DD06FF0A8
:102960002F023078A0F13003092B09D807EB870339
:1029700002EB4303C718761CF3E759F8047B761C77
:1029800030786C280FD006DC4C2817D068280DD082
:102990006A2814D104E0742810D07A280FD10DE0F1
:1029A00044F400140AE044F4801401E044F44014B8
:1029B0007278824202D1761C04F58014761C30783D
:1029C00066280BD013DC582877D009DC002875D096
:1029D0004528F6D04628F4D047281AD19FE118E0C0
:1029E000632835D0642879D0652812D197E1702802
:1029F00073D008DC6728F1D069286FD06E280DD01D
:102A00006F2806D1B5E073282CD0752875D07828AA
:102A100074D05A46179990476D1C76E1C4F3025062
:102A2000022809D003280DD0D9F8001004280DD0B1
:102A30000D6009F1040968E1D9F80010EA17C1E94D
:102A40000052F6E7D9F800100D80F2E70D70F0E7BC
:102A500019F8041B8DF8001000208DF80100EA46DB
:102A6000012003E059F804AB4FF0FF3061074FF04D
:102A7000000102D40DE008F101018846B9420FDAE5
:102A80008045F8DB1AF808100029F4D108E008F1B5
:102A9000010188468142FADB1AF808100029F6D1B4
:102AA00005985B46A0EB080721463846179A00F0C8
:102AB0009EFA284400EB080507E04DE02BE10DE00D
:102AC0001AF8010B5A4617999047B8F10108F7D246
:102AD0005B4621463846179A14E142E00A220092EA
:102AE000C4F302524FF0000A022A08D059F804CB6E
:102AF000032A4FEAEC710AD00DE029E02AE009F13F
:102B0000070121F00702F2E802C1914609E00FFA3D
:102B10008CFC4FEAEC71042A03D14FFA8CFC4FEA8B
:102B2000EC71002907DA0A460021DCF1000C61EBA8
:102B300002012D2202E0220504D52B228DF804206B
:102B4000012203E0E20701D02022F7E7904653E09C
:102B50000A2102E010220DE010214FF0000A00913E
:102B60000BE010224FF0000A44F004040827009202
:102B700003E008224FF0000A0092C4F30252022A36
:102B800005D059F804CB0021032A08D009E009F147
:102B9000070121F00702F2E802C1914605E01FFAA1
:102BA0008CFC042A01D10CF0FF0C4FF00008220726
:102BB00022D5702827D0009B83F0100353EA0A0324
:102BC00009D15CEA010206D030228DF804208DF88C
:102BD000050002229046009B83F0080353EA0A0393
:102BE0000AD15CEA010201D1620705D530228DF8D5
:102BF00004204FF001087F1E582809D037A0039009
:102C00000EA8029013E040228DF804200122E1E793
:102C100037A0F4E753466046009AFDF7E1FD84468D
:102C20000398825C0298A0F10100029002705CEAB5
:102C30000100EFD1029806A9A1EB000000F1200AE3
:102C4000600702D524F4803400E00127574502DDF7
:102C5000A7EB0A0000E0002000EB0A0100900598B5
:102C60004144A0EB01000590E00306D45B462146F9
:102C7000179A059800F0BBF90544002706E001A863
:102C80005A46C05D179990476D1C7F1C4745F6DB7F
:102C9000E0030CD55B462146179A059800F0A7F98A
:102CA000054404E030205A46179990476D1C00995E
:102CB000481E00900029F5DC08E0029802995A4667
:102CC0000078491C0291179990476D1CBAF10001D8
:102CD000AAF1010AF1DC6BE109280100303132333D
:102CE0003435363738396162636465660000000048
:102CF0003031323334353637383941424344454632
:102D00000000000000F060F9054406F1010630788B
:102D100000287FF4E9AD19B02846BDE8F08F6207BE
:102D200000D4062709F1070222F0070CFCE8022371
:102D3000E14603F000485FEA080C02D00FF27C2C59
:102D40000DE05FEA045C02D50FF2742C07E05FEA45
:102D5000C47C02D00FF26C2C01E0AFF2700C4FF08B
:102D6000FF3823F00043CDF850C065280CD006DCB6
:102D7000452809D046281DD047283ED13EE0662888
:102D800018D0672839D139E00021112F01DB11203B
:102D900000E0781CCDE9000106A90EA8FFF7EEFCC3
:102DA000DDE90F010E9A03910021009207F1010A5B
:102DB00004914EE04FF000400097CDE9011006A9C4
:102DC0000EA8FFF7DBFCDDE90F0203920E9B1199C1
:102DD0000022DDF80CA00093049219B907F101015B
:102DE00000EB010AB7EB0A0004D4C0F1FF3007F191
:102DF000010A0490AAEB0700019046E0012F00DAD7
:102E000001270021112F01DD112000E03846CDE916
:102E1000000106A90EA8FFF7B1FCDDE90F010E9A2B
:102E20000391002104910092BA4621070CD4039922
:102E3000514500DA8A46BAF1010F05DD009AAAF180
:102E40000101515C302908D0B84202DA10F1040FB8
:102E500006DA0121CDE9011017E0AAF10101E9E745
:102E6000002805DC049901440491AAEB000102E06A
:102E7000411C514500DD8A460499A0EB010000F198
:102E8000010001904FF000400290200704D4019807
:102E9000504501DBCDF8048000208DF84F000298EA
:102EA0000DF14F07B0F1004F25D02B200E90029866
:102EB0004FF0020800280CDA404202902D200E90BC
:102EC00007E00A210298FDF775FC3031029007F8FF
:102ED000011DB8F10001A8F10108F2DC02980028F8
:102EE000EFD1791E0E980870307800F0200040F085
:102EF000450007F8020D12A8A0EB070000F1070833
:102F00001498007800B1012000EB0A01019801EB50
:102F1000E07105984144A0EB0100A0F1010005908B
:102F2000E00306D45B462146179A059800F05FF847
:102F300005441498007820B15A461799904705F136
:102F40000105E00323D55B462146179A059800F05A
:102F50004EF805441BE00498002807DBDDE9030177
:102F6000884203DD0098405C179901E017993020F2
:102F70005A46904704986D1C401C04900198401ECE
:102F8000019004D12E205A46179990476D1CBAF132
:102F90000001AAF1010ADEDC05E017F8010B5A4630
:102FA000179990476D1CB8F10001A8F10108F4DCF5
:102FB0005B462146179A0598A4E600002D00000004
:102FC0002B000000200000002DE9F0410446002500
:102FD0001E461746880405D406E039462020B0472F
:102FE00005F10105641EF8D52846BDE8F0812DE9FC
:102FF000F041044600251E469046C80301D53027FF
:1030000000E02027880405D506E041463846B04751
:1030100005F10105641EF8D52846BDE8F0810A686F
:10302000531C0B60107070478268002901D01AB9D8
:1030300081607047020002D010680028FAD1116048
:103040004A60704770B514000D4606460ED0206ADF
:1030500010B1074949688847284600F0CDF820623A
:1030600021463046BDE87040FFF7DEBF70BD00006E
:10307000B402002070B505460E4600F055F8040075
:1030800008D00320E060C4E9065628463146FDF723
:1030900006FB6061204670BD10B500F045F80028C1
:1030A00001D00621C16010BD70B5054600F03CF8A6
:1030B000040005D00420E060284600F09DF820615F
:1030C000204670BD70B504460F4E19E0A0892568F2
:1030D000C0050AD4A06820B1FFF7F4FFA089C0059D
:1030E00003D4206908B171688847A089800503D49A
:1030F000206A08B1716888477168204688472C4665
:10310000002CE3D170BD0000B402002070B50D4664
:10311000846800E024682CB12946206A00F04BF84E
:103120000028F7D1204670BD054910B50968282050
:103130008847040002D02821FDF777F8204610BD0B
:10314000B402002000221146AFF300802DE9F041C7
:1031500090460E460446FFF7E7FF134F05004FF079
:103160000000B86015D0204609F07EFF01462846D1
:1031700008F0BCFD04000FD0B8F1000F10D02046BD
:1031800009F072FF0446007850B12846FFF79AFF15
:10319000BC600020BDE8F0812846FFF793FFF8E708
:1031A00006B134602846F5E7B402002000231A4631
:1031B000194609F0F7BE70B505000C4601D00CB1F8
:1031C00008E009B1012070BD002070BD0028FCD0CE
:1031D0006D1C641C2878FCF7B9FF06462078FCF7C4
:1031E000B5FF86422878F1D0FCF7B0FF054620787D
:1031F000FCF7ACFF281A70BD70B50646FDF72AF83B
:103200000649401C044609688847050004D0224648
:103210003146FCF7F1FF284670BD0000B4020020E3
:103220000A22B0FBF2F102FB1100090700EB11606A
:10323000704700002DE9F041040009D023683BB13C
:10324000A26850186168814204DB9818BDE8F081DB
:103250000020FBE7401E40EA600040EAA00040EA90
:1032600020100F4F40EA202040EA2046761C3968A3
:103270003046884705000BD0D4E90012FCF7BCFFAC
:10328000796820688847C4E90056A0682844DDE7CB
:10329000796820688847002060602060D8E70000D7
:1032A000B40200202DE9F041C1F30A52A2F2FF3628
:1032B0002F4A304B0D460446142E2FDA002E12DA18
:1032C000FDF78FF800221346FDF730FA4CD2002D9F
:1032D000A4BF0024254647DA25F00040204318BF4C
:1032E000254D41D018E0DFF894C02CFA06F705EA26
:1032F000070C5CEA040C08BFBDE8F081FDF771F82B
:1033000000221346FDF712FA2ED2002D03DA4FF4F5
:103310008010F0400544BD43002425E0332EC8BF93
:10332000BDE8F081A6F1140C4FF0FF3727FA0CF737
:103330003C4208BFBDE8F081FDF7F7F800221346D4
:10334000FDF7F4F910D2002D0DDA142E08BF6D1C14
:1033500009D0C6F13400012101FA00F02044A04256
:1033600038BF6D1C0446BC4329462046BDE8F081A9
:103370009C7500883CE4377E0000F0BFFFFF0F0023
:103380002DE9F0472548264DD0F80D702988D0F852
:10339000090007F114068F4202D829888E4211D203
:1033A0002A881E49D1F80D102831964204D82A885F
:1033B000914201D31B4903E02A88914202D21A4963
:1033C000FCF775FF2E8804461A48184D4FF0FF3A57
:1033D000DFF85C800068FDF726F981460F48B742A8
:1033E000D0F8052007D34FF07C511046FCF7B1FF11
:1033F0000146484601E048461146FCF7B0FF5146F9
:103400002860FCF7E2FFC8F8000048462146FCF7B8
:10341000A6FF09490860BDE8F0870000A808002061
:10342000F0010020CDCCCC3DCDCC4C3E6000002046
:103430006400002058000020680000202DE9F84FAB
:103440000024ADF80040DFF830B1DFF830A19BF880
:1034500000009AF8001088427ED0DFF82491DFF84F
:103460002481494E99F840100125484F012911D176
:1034700099F8691071B198F8001001290AD14449EE
:10348000097839B969030128424820D0FEF7DCF8F1
:1034900028B33D709AF800008BF800003E49DFF831
:1034A000FCA0DFF8FCB001281BD000285ED1098801
:1034B0003C480180002000F0CFFC0022022135486A
:1034C000FEF7C9F898F8000001282BD037E0FEF786
:1034D000BBF8012801D03570DCE73470DAE73C70C6
:1034E000D8E70988AAF800102F484FF47A710160D4
:1034F0002E482F490068C863012000F0ADFC01226E
:1035000002212448FEF7A7F8042000F065FC98F893
:10351000000001282AD18BF80050BDE8F84F0620A2
:1035200005F0AEBE032000F057FC8BF800400620EB
:1035300005F0A6FE16480178012900D1047099F81B
:103540006900002812D01848006800280ED1BAF887
:1035500000101448008800E008E0081AADF80000E8
:10356000BDF90000012803DA35703D70BDE8F88F21
:1035700034703C70FAE70000A5000020A400002091
:10358000A80800206C000020B800002030000020B7
:1035900016010020000C0140F00100202402002050
:1035A0005000002026020020BC0100203C0000202A
:1035B0008C0900202DE9F05F00F0ACFAFD4908709D
:1035C000FFF7DEFE00F0EEFDFA48FB4EFB4F0378FE
:1035D000DFF8ECB3DFF8EC93FB4D4FF0010A4FF04E
:1035E00003080024CBB1F948F949FA4A012B48D025
:1035F000022B7DD0032B7CD1F74BDB7C012B78D1C8
:1036000000880968884207D91068FDF703F8F34974
:103610000968FDF7BBF86DD295E1F1480178491CC6
:1036200001700078C82864D307F0EAFE89F80040EA
:103630009BF8001011B1386840B109E0E6483470D9
:103640008BF800A090F86100386001E086F800A0D7
:10365000287800284DD0E3482C70007830B9E24833
:10366000E3490470E148047081F80080002000F014
:10367000B3FBE04908200870BDE8F05F0F2005F0BB
:10368000FFBDDD4B1B78002B34D0008809688842D1
:1036900034D8DA480178491C01700078642828D3AE
:1036A00007F0AEFE4FF0050889F800802978404603
:1036B00005291ED0CE49287004200870CD480D2160
:1036C00001700F2005F0DCFDC348D0F80D00002884
:1036D00041D0C549CA4A81F800A04FF4FA6111608F
:1036E000C84981F800A0C14981F800A0C64902E09C
:1036F0007CE09AE0F4E081F8008058E1B548006889
:10370000FCF788FFB5490968FDF740F85ED2B2487A
:10371000D0F80D10BD480088814257D2BC480078CF
:10372000012819D0BB480178491C01700078C828CD
:103730007BD307F065FE89F800802978404603298D
:1037400073D0AC4928700B2008700F2005F098FD4D
:10375000A4480078A8B3BDE0AF480178491C0170C7
:103760000078642861D307F04BFE4FF0040889F815
:1037700000802878042858D09D4885F800800C21C6
:1037800080F800809B4801700F2005F079FD924879
:10379000D0F80D0088B19449994A81F800A04FF4FF
:1037A000FA6111609749984881F800A08F4981F823
:1037B00000A080F8008099480470042000F00CFB01
:1037C00088E0FFE7032000F007FBB4E081480068D1
:1037D000FCF720FF81490968FCF7D8FF26D27E4814
:1037E000D0F80D108948008881421FD98948017896
:1037F000491C01700078C82870D307F001FE89F8D1
:10380000008029784046032968D07A4928700B2027
:1038100008700F2005F034FD5FF0030000F0DCFAC3
:103820007048007800287DD054E057E0694800686F
:10383000FCF7F0FE7A490968FCF7A8FF20D8654834
:103840000068FCF7E7FE65490968FCF7A9FF17D88F
:1038500074480178491C01700078C8283ED307F0ED
:10386000CFFD022089F800002978022936D028707F
:1038700060480A2101700F2005F002FD0220CDE70B
:1038800054480068FCF7C6FE67490968FCF77EFFEC
:1038900026D850480068FCF7BDFE61490968FCF76E
:1038A0007FFF1DD861480178491C01700078C82845
:1038B00014D307F0A5FD89F800A029785046012906
:1038C0000CD028704B48092101700F2005F0D8FC5E
:1038D0000120A3E734708BF800403C60BDE8F09F06
:1038E0003F480178491C01700078C828F6D307F0DA
:1038F00087FD89F800409BF80010E9B33868E0B311
:1039000028780028EAD03B492C70082008700F2046
:1039100005F0B6FC002000F05FFA3248007800287D
:10392000DCD100E007E03048314904702F480470D2
:1039300081F80080D2E72C482D4904702B48047090
:1039400081F80080C6E73A480178491C0170007888
:103950006428C3D30621C84689F8001007F050FD3B
:10396000297898F800008142B8D0214928700420B5
:1039700008700E211F4801E05CE063E001700F2039
:1039800005F07EFC1448D0F80D000028A2D016499E
:103990001B4A81F800A04FF4FA6111601949062012
:1039A00081F800A0114981F800A0174908701B4850
:1039B00004708FE76E020020840000208401002044
:1039C000C8000020E5000020E6000020760200206C
:1039D0007002002058020020A80800206800002083
:1039E000E8010020A10000206C000020A4000020BD
:1039F000950000204B00002053020020ED01002024
:103A000054010020A600002014010020F001002035
:103A10005D000020EB010020EC01002015010020DA
:103A200064000020EA01002060000020E90100207D
:103A3000EE010020054834708BF800A090F861007A
:103A400038605DE786F800A05AE70000A80800206B
:103A500070B516460D46012802D0022802D004E0B7
:103A6000104C00E0104C112D01D9002070BD022136
:103A70002046FDF71EF90523012229462046FDF7C1
:103A800025F901212046FDF75BF902212046FDF7CB
:103A900016F90028F9D02046FDF70EF93060012014
:103AA00070BD000000240140002801402DE9FC41C8
:103AB00000270097019707600D4606463C460F60B9
:103AC0006A460A210120FFF7C3FF012805D101AA98
:103AD0000B21FFF7BDFF012802D00020BDE8FC81CB
:103AE000306800997F1C0844306028680199BFB293
:103AF0000844286000940194C82FE1D93168C82097
:103B0000B1FBF0F131602968B1FBF0F028600120D1
:103B1000E4E70000094900200A780949032A0978E6
:103B200002D0012A02D003E0032001E0012903D0E2
:103B3000022900D102207047012070475202002064
:103B40005502002070B50A4D286878B9094C0A481A
:103B50004FF40051227802B10122FDF77CFD20785C
:103B600080F0010020704FF4FA702860012070BDD1
:103B70004C0100209A000020001001402DE9F05F68
:103B80006D4EDFF8BCA13046776AB36ADFF8AC91BE
:103B90009AF800C0027FDFF8AC8101256A49002451
:103BA0009F4227D1DFF8A4E10D70336ABEF8000010
:103BB000674FDFF8A0B1834255D889F800508BF8E1
:103BC000004098F8000020B3706998F8001088420F
:103BD00047D3387801280BD1022038708AF800507A
:103BE000284600F039FA082005F04AFB5A480570CB
:103BF000BDE8F09F5948BB42007804D3874206D8FD
:103C00009842CFD303E09842CCD38742CAD90C70F4
:103C10008DE038780228EBD1032038705048042119
:103C20000170504850490570C889401CC8814F48F0
:103C30000078012807D14E484E4905700A200870C7
:103C4000072005F01DFB4C48016841F4004101606C
:103C50004A490F20087005F013FB4949F06A0860D3
:103C6000C6E73D70C4E7BEF800607046B3425ED957
:103C7000BCF1010F56D1DFF80CC106889CF800306A
:103C8000B34207D000888CF800009BF800305B1C22
:103C90008BF80030304B8BF800408AF800401C70E5
:103CA0000C7030492046DFF890A00C7088F8002096
:103CB00000F0D2F9082005F0E3FADFF8A4802B48E1
:103CC000032688F800600078012807D12848294990
:103CD00004700A200870072005F0D2FA264801680F
:103CE00021F4004101603D70274889F800400178C7
:103CF000012906D0DAF818000028B1D188F8006050
:103D000076E70470214800780428A9D00528A7D0B8
:103D10000628A5D0002000F05FF81D4804701D485B
:103D20000470EBE789F8004088F8002060E7BCF1F8
:103D3000010FF7D15CE70000A80800201201002065
:103D4000110100200802002093000020F001002053
:103D50000002002016020020B60000208102002090
:103D60009500002092000020301D0020CF00002090
:103D7000E2000020E4000020480200204B00002068
:103D80000402002017020020A1000020E50000200E
:103D90006C000020A40000200E4910B505220A6026
:103DA00000224A600A7208238B724A72C8720A7330
:103DB0004A738A73CA730A744A748A740548FDF791
:103DC00019F904460428F9D02046FDF76DF90228B8
:103DD000FAD010BD0C1C00200E4910B501220A605B
:103DE00000224A600A7208238B724A72C8720A73F0
:103DF0004A738A73CA730A744A748A740548FDF751
:103E0000F9F804460428F9D02046FDF74DF90228B8
:103E1000FAD010BD0C1C00200E4910B503220A6018
:103E200000224A600A7208238B724A72C8720A73AF
:103E30004A738A73CA730A744A748A740548FDF710
:103E4000D9F804460428F9D02046FDF72DF90228B8
:103E5000FAD010BD0C1C00200E4910B507220A60D4
:103E600000224A600A7208238B724A72C8720A736F
:103E70004A738A73CA730A744A748A740548FDF7D0
:103E8000B9F804460428F9D02046FDF70DF90228B8
:103E9000FAD010BD0C1C00200E4910B502220A6099
:103EA00000224A600A7208238B724A72C8720A732F
:103EB0004A738A73CA730A744A748A740548FDF790
:103EC00099F804460428F9D02046FDF7EDF80228B9
:103ED000FAD010BD0C1C002010B548BB2349244A61
:103EE000097812781143234A12781143224A127832
:103EF0001143224A12781143214A12781143214A70
:103F000012781143204A12781143204A1278114343
:103F10001F4A127811431F4A127811431E4A127821
:103F200011431E4A127811431D4A127811431BD1C6
:103F30001C4904220A6000224A600A7208238B721C
:103F40004A72C8720A734A738A73CA730A744A74CB
:103F50008A741448FDF74EF804460428F9D0204628
:103F6000FDF7A2F80228FAD010BD0000840000205E
:103F70006E0000206F000020700000207100002003
:103F800072000020730000207400002075000020E3
:103F900076000020770000207800002079000020C3
:103FA0007A0000200C1C0020044B1870044801709B
:103FB00004480270092005F063B900004E0000209B
:103FC0004F0000204D0000200E4910B523220A604A
:103FD00000224A600A7208238B724A72C8720A73FE
:103FE0004A738A73CA730A744A748A740548FDF75F
:103FF00001F804460428F9D02046FDF755F80228B8
:10400000FAD010BD0C1C0020104810B5A121016091
:10401000002141600172082282720D4A41721278B9
:10402000C2720C4A1278027341738173C1730174B6
:10403000417481740548FCF7DDFF04460428F9D07B
:104040002046FDF731F80228FAD010BD0C1C0020E4
:10405000E5000020520200200E4910B506220A6039
:1040600000224A600A7208238B724A72C8720A736D
:104070004A738A73CA730A744A748A740548FCF7CF
:10408000B9FF04460428F9D02046FDF70DF80228B0
:10409000FAD010BD0C1C0020144810B5008808236D
:1040A00000EBC00101EB00104FF6FF7101EA800246
:1040B0000F4840F2F53101600021416001728372C6
:1040C0004172C272120A027341738173C173017427
:1040D000417481740648FCF78DFF04460428F9D02A
:1040E0002046FCF7E1FF0228FAD010BDF0010020C5
:1040F0000C1C0020114810B5A02101600021416076
:104100000172082282720E4A41721268130EC37243
:10411000130C0373130A43738273C17301744174E4
:1041200081740648FCF766FF04460428F9D020464F
:10413000FCF7BAFF0228FAD010BD00000C1C0020CA
:1041400058020020154810B500684FF47A7190FBB2
:10415000F1F10023002901DA012349421048A2228B
:104160000824026000224260027284724272C372AA
:104170000B0E03730B0C43730B0A8373C17302742E
:10418000427482740648FCF735FF04460428F9D0CF
:104190002046FCF789FF0228FAD010BD60020020FB
:1041A0000C1C002070B510481049D0F80D000E8886
:1041B00000F1280215460E4B4FF49674B24201D21C
:1041C0001C6070BD0E8800F11402B24202D80E8845
:1041D000B542F5D20D88A84202D808888242EFD2B3
:1041E0000020186070BD0000A8080020F001002029
:1041F00070020020F0B5BFB016460D4607466C466B
:1042000000F062F9012809D014A11B48FEF71AFA40
:10421000194806F0F7FA00203FB0F0BD32462146BB
:10422000384600F09BF8032808D014A11248FEF786
:1042300009FA114806F0E6FA0220EDE7002009E04D
:1042400029782278914201D00420E5E76D1C641C96
:10425000401C80B2B042F3D30520DDE70D0A2053A5
:10426000657269616C206E756D6265722077726926
:104270007465206661696C00CC0200200D0A205331
:10428000657269616C206E756D6265722072656120
:1042900064206661696C00002DE9F04188460024C5
:1042A000060AC5B206F02EFDA02006F001FD06F0BC
:1042B0007DFD012816D1304606F0FAFC06F076FDA9
:1042C00001280FD1284606F0F3FC06F06FFD012807
:1042D00008D106F017FDA12006F0EAFC06F066FD05
:1042E000012802D00220BDE8F08102F06BFF194DD9
:1042F000286801E0401E28600028FBD1164F0026E8
:10430000012240213846FDF7A6F980213846FDF705
:104310009BF910B144F0010401E004F0FE04002216
:1043200040213846FDF797F92868FDF7FEF8072E7B
:1043300001D26006040E761CF6B2072EE0D902F018
:1043400053FF02F017FC06F001FD88F8004003203F
:10435000C9E7000028010020000C01402DE9F84FBA
:1043600000230093A9B10E468109890140318309D8
:10437000091A9B0104464033181BC0B201F0FF0824
:10438000101A424509D94FF0020101EB9011C9B250
:1043900005E04FF00600BDE8F88F4FF001018946B7
:1043A00002D900F03F0001E04FF001008246B9F170
:1043B000010F04D1BAF1010F01D102F0FF08B9F1E8
:1043C000000F09D84FE039B1A9F10100814205D1B0
:1043D0005FEA0A0503D146E0454600E040254FEA82
:1043E000142BE7B206F08EFCA02006F061FC06F06C
:1043F000DDFC012816D1584606F05AFC06F0D6FC22
:1044000001280FD1384606F053FC06F0CFFC0128F6
:1044100008D106F077FCA12006F04AFC06F0C6FCA5
:10442000012801D00220B6E70027A5F1010B09E021
:1044300004F04EFD30705F4501DA06F0AFF9761CEE
:104440007F1CFFB2AF42F3D302F094FB06F07EFC78
:10445000601984B20520FCF7ABFE0098401C0146B1
:1044600000904845AFD3032095E7000070B50D4696
:10447000040AC6B206F046FCA02006F019FC06F0BD
:1044800095FC012814D1204606F012FC06F08EFCA3
:1044900001280DD1304606F00BFC06F087FC012800
:1044A00006D1287806F004FC06F080FC012801D033
:1044B000002070BD06F04AFC02480068FDF735F8A0
:1044C000012070BD280100202DE9FC5F044600207A
:1044D00016460090F9B10D46A0200190B11E284665
:1044E000FCF720FEA91901F8020D000A4870A00986
:1044F00080014030001B00F0FF08A009800140301F
:10450000001BC0B2301A464509D94FF0020101EB39
:104510009011C9B205E04FF00600BDE8FC9F4FF0D6
:104520000101894605D900F03F0ABAF1010F02D016
:1045300006E04FF0010AB9F1010F01D106F0FF08C2
:10454000B9F1000F09D842E039B1A9F10100814267
:1045500005D15FEA0A0603D139E0464600E040266D
:104560004FEA142BE7B206F0CDFB019806F0A0FB52
:1045700006F01CFC012816D1584606F099FB06F0FF
:1045800015FC01280FD1384606F092FB06F00EFC10
:10459000012808D100270BE0287806F089FB06F0F7
:1045A00005FC012801D00020B7E76D1C7F1CFFB27D
:1045B000B742F1D306F0CAFBA01984B20520FCF77C
:1045C000F7FD0098401C014600904845BCD30120EF
:1045D000A3E7000070B5174D174E4FF480740528FF
:1045E0001AD2DFE800F0190307071B000120FFF7CC
:1045F00053FC11E0022801D1FFF74EFC01222146B5
:104600002846FDF728F8002201213046FDF723F85F
:104610005FF00000FFF7C0FB012070BD00222146C3
:104620002846FDF718F8012211463046FDF713F829
:104630000120EFE700080140000C01402DE9F05F88
:10464000DFF870A1DFF870E15C4B9AF800200120E0
:104650005B4CDFF870B100215B4D5C4E5C4FDFF8C6
:104660007491012A32D1D7F800C0BEF8002062440C
:104670003A60DFF86481D8F800C0584A1268624492
:10468000C8F80020D5F800C0554A126862442A6074
:104690002278521CD2B222700A2A17D3D7F800C04F
:1046A0000A229CFBF2FCC7F800C0C446D8F8008080
:1046B00098FBF2F8CCF80080D5F800C09CFBF2F231
:1046C0002A60217018708AF8001002E01A78012A16
:1046D00036D1D9F80080BEF800C0C444C9F800C083
:1046E000DFF800E1DEF80080DFF8F0C0DCF800C0A1
:1046F000C444CEF800C0D6F800C0394A12686244FB
:1047000032602278521CD2B222700A2A18D3D9F809
:1047100000800A2298FBF2F8C9F80080DEF80080D9
:1047200098FBF2F8CEF80080D6F800C09CFBF2F2BD
:104730003260217019708AF800008BF8000003E0E5
:104740009BF80020012A31D1DFF88CA08BF80010F3
:104750008846DAF80020DFF88CB0DBF80010511A38
:10476000642915DB29683268891A642910DB3A68E4
:10477000D9F80010511A1E290ADB1B4908701B4981
:1047800008700C2004F07CFD17480078FFF7A4FBAC
:10479000CAF80080CBF80080C5F80080C6F8008019
:1047A000C7F80080C9F8008084F800800120BDE8C7
:1047B000F09F00000D010020F00100200E010020FC
:1047C0000C010020B4000020D8010020DC010020F2
:1047D000E0010020E4010020D0010020F8010020C9
:1047E000FC010020D4010020B2000020B300002012
:1047F0002DE9F041FCF700FB2B48FCF7EBFB2A48C6
:1048000000250126057045708570C57006714571DB
:104810008571C5710B210172042141720227478104
:10482000FCF76EFB204C4FF422400C34267066706F
:10483000A570A0804FF45E40E08042F2604020818D
:104840004AF220006081A581A6732046FCF7EAFAAF
:1048500027706670A5704FF46440A0804EF220402F
:10486000E0804EF2404020814FF44A606081A58193
:10487000A6732046FCF7D6FA032020706570A57059
:104880004FF46040A0804FF42040E0802581658196
:10489000A581A6732046FCF7C5FA01210220FCF78A
:1048A00023FB0120BDE8F081841D002070B53F4D41
:1048B00005282B7801D3042008E0042806D0834281
:1048C00072D0032816D0022814D04BE03849394E54
:1048D0000A7831788A420AD037498C8D641C8C85DD
:1048E000364C2468C1F82F4081F82E203270042BFA
:1048F00038D159E03249334A097812781143324AA3
:1049000012781143314A12781143314A1278114317
:10491000304A12781143304A127811432F4A1278E4
:1049200011432F4A127811432E4A127811432E4A0E
:10493000127811432D4A127811432D4A12781143EF
:104940002C4A127811432C4A127811432B4A1278C0
:1049500011432B4A127811432A4A1278114301D08D
:10496000002070BD287002462748284C4FF4807103
:10497000052A19D2DFE802F0181803030D000122FE
:10498000FCF769FE002201212046FCF764FE0020AE
:1049900008E00022FCF75FFE012211462046FCF7EA
:1049A0005AFE0120FFF7F8F9012070BDE300002056
:1049B000E40000204E0200208C0900203C00002072
:1049C0006D0000206E0000206F0000208700002096
:1049D00088000020890000208A0000208B00002031
:1049E0008C0000208D0000208E000020910000200F
:1049F0008F00002090000020A700002092000020DF
:104A00006C0000209F00002000080140000C0140C5
:104A1000F0B540F2AC47B9B0002404226B493846E7
:104A2000FFF79CFC032804D069A17248FDF70AFE39
:104A3000C4E0664E3278F22A7ED06FA16D48FDF751
:104A400001FE6C4805F0DEFE00F096FA02460528ED
:104A500001D070A1AFE001218DF800100A25CDF83A
:104A600001508807CDF805004FF07C50CDF80900C3
:104A70002822CDF80D2000208DF812008DF81100AD
:104A80008DF813100523CDE905304FF0160CCDE954
:104A9000082C4FF0060C3C23CDE90AC507938DF88E
:104AA00030108DF831106E25CDF832508DF836006B
:104AB000CDF837208DF83B108DF83C008DF83D0087
:104AC0008DF83E0002228DF83F108DF85310192109
:104AD00017918DF84020584A159264218DF8613065
:104AE0008DF86410554A8DF862308DF865108DF898
:104AF000720016928DF863008DF866108DF87100C3
:104B00008DF867101A901B908DF870008DF860007A
:104B1000ADF84100CDF84300CDF84700CDF84B008B
:104B2000CDF84F008DF873008DF888006D46291977
:104B3000641C81F8890000E046E0592CF7D3044654
:104B4000ADF8E200E42229464FF4F270FFF752FB81
:104B50000246052801D03AA12DE000202918401C6A
:104B600081F889405928F9D3ADF8E240E42269463A
:104B70004FF43270FFF73EFB0246052801D039A101
:104B800019E043A14448FDF75DFD0C2242494FF472
:104B90009660FFF72FFB0246052801D03FA10AE0EF
:104BA000F2203070042209493846FFF723FB024601
:104BB000052809D040A10F48FDF744FD0D4805F038
:104BC00021FE002039B0F0BD0120FBE78402002067
:104BD0000D0A20466972737420626F6F74757020BD
:104BE000666C61672072656164206661696C6564EA
:104BF00000000000CC0200200D0A20466972737488
:104C000020626F6F74757020666C6167202D20259F
:104C1000640000000D0A20436C6561722045455018
:104C2000524F4D204D656D6F7279204661696C65FC
:104C300064203A2025640000EC51B83E06812D40E6
:104C40000D0A2044656661756C742053657474693F
:104C50006E6773205772697465206661696C203ACB
:104C6000202564000D0A2044656661756C7420542B
:104C70006573742053657474696E67732057726925
:104C80007465206661696C203A202564000000008C
:104C90004543303030304100041D00200D0A2045CE
:104CA0004355204944205772697465206661696CD8
:104CB000203A2025640000000D0A204465666175D5
:104CC0006C7420666C616720577269746520666138
:104CD000696C203A202564002DE9F05F3D4F0023E8
:104CE000DFF8F4903978DFF8F4A03D4C0125DFF8C7
:104CF000F4C0DFF8F4E04FF0320B1846012916D16A
:104D00003A49B9F800200E6806EB0208C1F80080A5
:104D1000DAF80060761CCAF80060322E07D398FBE0
:104D2000FBF60E60CAF800002570387002E02178AA
:104D3000012921D12E490968F1B9B9F80020DEF81E
:104D4000006006EB0208CEF80080DAF80060761CFE
:104D5000CAF80060322E0FD398FBFBF3CEF8003078
:104D6000CAF8000020703870142B01DC072300E023
:104D700006238CF8005003E09CF80010012925D18F
:104D80001A4F8CF800008046DEF80000396876463D
:104D9000421A184818499A4204DBC288521CC28041
:104DA000022006E012F10C0F07DC0289521C02817E
:104DB000032008700F2004F063FA306838600C4854
:104DC0004FF47A71C6F80080016025700120BDE8BB
:104DD000F09F0000AA000020F0010020F800002051
:104DE000AB000020AE000020F0000020EC0000200E
:104DF000B0010020301D00204B0000202DE9F05FA5
:104E0000504EDFF844A1DFF844B13178DFF840E1DB
:104E10000125504C504F0020012927D1DFF83C914B
:104E2000DAF80020D9F800304D4903EB0208C9F840
:104E300000800B68DBF8002003EB020CC1F800C017
:104E4000DEF800305B1CCEF80030322B0ED34FF072
:104E5000320998FBF9F8414BC3F800809CFBF9F349
:104E60000B60CEF800002570307002E02178012937
:104E700029D13C49096831BB3B49DAF800200B686D
:104E8000DFF8E89003EB0208C1F80080D9F800C011
:104E9000DBF80030F2469C44C9F800C0DEF8002080
:104EA000521CCEF80020322A0DD3322298FBF2F3A6
:104EB0009CFBF2F20B60C9F80020CAF800003070C9
:104EC00020703D7002E03978012937D13870264FC3
:104ED000DFF8888082463968D8F80000244E081A26
:104EE000282808DBB0880521401CB08021480170CB
:104EF0000F2004F0C5F9DFF87490DFF864B0D9F83A
:104F00000010DBF80000081A462808DB708804212E
:104F1000401C7080174801700F2004F0B1F9396807
:104F2000C8F80010C7F800A0D9F800300D48CBF839
:104F30000030FA21C9F800A0016025700120BDE809
:104F4000F09F0000AC000020F8010020FC010020D0
:104F5000F4000020AD000020AF000020FC00002085
:104F600004010020B40100200001002008010020FD
:104F7000301D00204B0000207CB500248DF800403F
:104F80008DF804401FA12848FDF75CFB264805F07A
:104F900039FC4FF47A754FF4804601A92046FFF79B
:104FA00065FA012801D000207CBD0520FCF700F93E
:104FB00069462046FFF770F9032801D002207CBD26
:104FC0009DF8000050B1C3B2224618A11648FDF763
:104FD00039FB154805F016FC04207CBDB4FBF5F048
:104FE00005FB104038B9224618A10F48FDF72AFBEF
:104FF0000D4805F007FC641CA4B2B442CDD30520D3
:105000007CBD00000D0A20454550524F4D204C6F8D
:1050100061642044656661756C74205374617274B8
:10502000202E202E00000000CC0200200D0A20437C
:105030006F6D70617265204661696C6564202D201A
:1050400025642C2052642D20256400000D0A2025A3
:10505000640000000021B14A08465054491C32291E
:10506000FBD3AF4A00215054491C6429FBD3AD49FE
:10507000AE4B00220860AC49086040F2DC51985405
:10508000521C8A42FBD3AA4AAB4B1060A94A10605B
:1050900000229854521C8A42FBD3A84AAB4B1060A2
:1050A000A74A1060A74A1060A74A106000229854CF
:1050B000521C8A42FBD3A6490860A6490860A6494B
:1050C0000870A6490870A6490870A6490870A64944
:1050D0000870A6490870A6490870A6490870A64934
:1050E0000870A6490870A6490870A6490870A64924
:1050F0000870A6490870A6490870A6490870A64914
:105100000870A6490870A6490870A6490870A64903
:105110000870A6490870A6490870A6490870A649F3
:105120000870A6490870A6490870A6490870A649E3
:105130000870A6490870A6490870A6490870A649D3
:105140000870A6490870A6490870A6490870A649C3
:105150000870A6490870A6490870A6490870A649B3
:105160000870A6490870A6490870A6490870A649A3
:105170000870A6490860A6490860A6490870A649B3
:105180000870A6490870A6490870A6490870A64983
:105190000860A6490860A6490860A6490860A649B3
:1051A0000860A6490860A6490870A6490870A64983
:1051B0000870A6490870A6490870A6490870A64953
:1051C0000870A6490870A6490870A6490870A64943
:1051D0000870A6490870A6490870A6490870A64933
:1051E0000870A6490870A6490870A6490870A64923
:1051F0000870A6490870A6490870A6490870A64913
:105200000870A6490870A6490870A6490870A64902
:105210000870A6490870A6490870A6490870A649F2
:105220000870A6490870A6490870A6490870A649E2
:105230000870A6490870A6490870A6490870A649D2
:105240000870A6490870A6490870A6490860A649D2
:105250000860A6490860A6490860A6490860A649F2
:105260000860A6490860A6490860A6490860A649E2
:105270000860A6490860A6490860A6490860A649D2
:105280000860A6490860A6490860A6490860A649C2
:105290000860A6490860A6490860A6490860A649B2
:1052A0000860A6490860A6490860A6490860A649A2
:1052B0000860A6490870A6490870A6490860A64972
:1052C0000880A6490880A6490870A6490870A64922
:1052D0000870A6490870A6490870A6490870A64932
:1052E0000870A6490870A6490870A6490870A64922
:1052F0000860A6490860A6490860A6490880A64932
:105300000870A6490860A6490860A6490870A64921
:105310000870A6490870012070470000E2090020CB
:10532000CC1500201C00002020000020F00F0020E1
:105330001400002018000020CC02002000000020F3
:1053400004000020080000200C000020301600207F
:105350002400002028000020940000202E000020BF
:105360009500002096000020970000209800002063
:10537000990000209A0000207D0200209B00002060
:105380009C0000209D0000209E0000202F00002097
:10539000A0000020A8000020A9000020AA000020F2
:1053A000AB000020AE000020AF000020B0000020C5
:1053B000B1000020A100002012010020A200002066
:1053C000B2000020B3000020B4000020B50000208F
:1053D000B6000020B7000020C6000020C700002053
:1053E000A3000020C9000020CA000020CB0000203C
:1053F000CC000020CE000020CF000020D0000020F4
:10540000D1000020D2000020D30000204402002060
:10541000480200200D0100200E010020CD000020D8
:10542000D40000200C010020D0010020D401002075
:10543000D8010020DC010020E0010020E401002070
:105440002C0000204800002049000020E10000203E
:105450006D0000206E0000206F0000207000002012
:1054600071000020720000207300002074000020F2
:1054700075000020760000207700002078000020D2
:10548000790000207A0000207B0000207C000020B2
:105490007D0000207E0000207F0000208000002092
:1054A0008100002082000020830000208400002072
:1054B0008500002086000020870000208800002052
:1054C000890000208A0000208B0000208C00002032
:1054D0008D0000208E0000208F0000209000002012
:1054E000910000203C0100204001002044010020E8
:1054F000480100205C0100206001002064010020C0
:10550000680100206C01002070010020740100205F
:10551000780100207C01002084010020800100200F
:1055200040000020B00100208C01002090010020EC
:1055300094010020980100209C010020A00100207F
:10554000AC010020BC010020C40100204A00002062
:105550004B000020E8000020CC010020CE010020FC
:105560000F010020100100209300002011010020F5
:105570001301002014010020150100201601002055
:1055800021010020310000201C0100202C010020FE
:105590003001002014020020340100203C020020D1
:1055A000400200204C0200204E0200204D0200204C
:1055B0003FB583B0044610208DF8040000258DF817
:1055C0000050012201A9072005F05AFE012C05D147
:1055D0009DF8280040F080008DF82800012204A9E1
:1055E000032005F04DFE012205A9042005F048FE28
:1055F000012206A9052005F043FE01220AA9022086
:1056000005F03EFE01220BA9104605F039FE0122ED
:105610000CA9002005F034FE8DF8005001226946E7
:105620000B2005F02DFE07B0012030BD010901EB74
:10563000810100F00F0000EB4100C0B27047000094
:1056400070B51B4C1B4D2078C8B9012020701A4939
:105650001A48FEF72BFA18480021008882B29820D9
:1056600005F0EAFA15480121008882B2982005F079
:10567000E3FA0120FEF7AEFF47F2305028602078B1
:10568000012812D1286880B940F23E2200219820DA
:1056900005F0D2FA4FF48E720121982005F0CCFA71
:1056A0000220FEF797FF02202070012070BD00004D
:1056B000C5000020A80100200400002000000020F8
:1056C0002DE9F04100210846FBF736FF0C4C01257F
:1056D00000262560267110276771A5712046FBF70B
:1056E000D1FE0C210120FBF727FF28032060267143
:1056F0006771A5712046FBF7C5FE0120BDE8F0816A
:10570000980200202DE9F04FFF4985B04FF0010BC2
:105710004FF0000881F800B0FC48FE4EFE4F0178C3
:10572000FB48FE4CFE4DC146012903D1FD490978D5
:10573000012904D085F8009080F800B075E085F864
:1057400000B00178012970D180F80090F6484946F0
:10575000DFF8D8A302788DF8002042788DF8012078
:1057600082788DF80220C2788DF8032002798DF8B6
:10577000042042798DF8052082798DF80620027A7E
:105780008DF80720C2798DF80820427A8DF809201B
:10579000827A8DF80A20C27A8DF80B20027B8DF870
:1057A0000C20827B8DF80D20407B8DF80E008DF84B
:1057B00010108DF80F108DF8111000BFDAF80000EE
:1057C00020FA08F0C0070AD0D9481DF8082010F8C0
:1057D00008100120FEF7E8FB0A20FBF7E9FC08F1BE
:1057E000010000F0FF08B8F1120FE7D3DFF844A37F
:1057F0004FF00008206820FA08F0C0070AD086F8A9
:1058000000B01AF808003870072003F039FD0A20AC
:10581000FBF7CEFC08F1010000F0FF08B8F1120F11
:10582000E8D3B9480078012873D1C349DFF80C8365
:105830004FF0030A0878012809D181F80090C04987
:10584000002081F80090FEF747FB88F800A0B648DA
:10585000613890F86100E8B3BA480178BA48012984
:10586000017802D0012955D043E021B980F800B079
:105870000120FEF731FB2878012807D1AA480B2127
:10588000613890F870200120FEF78EFBA748016870
:1058900041F001010160AD480188491C0180AC491B
:1058A0000968C0F803100B2181709F48A94961382D
:1058B00090F870000A88904217D8A749087848B92C
:1058C00081F800B0042188F8001029785846012991
:1058D00007D100E011E030700C203870072003F091
:1058E000CFFC206840F001000BE00988401F88428F
:1058F00008DD99480178012912D003E0206820F0E2
:10590000010020608848613890F85300012816D0C3
:105910005BE0F2E380F800900020FEF7DDFAE8E7B4
:1059200080F8009088F800A0287849460128E5D141
:1059300031700C203870072003F0A2FCDEE77A48B3
:10594000613890F86200E8B384480168854800290E
:10595000834A017802D001291BD036E091BB80F840
:1059600000B082F800B0042088F800000120FEF7A3
:10597000B3FA2878012806D186F800B087F800A08D
:10598000072003F07DFC206840F0020020600A2020
:1059900017E080F8009082F800900020FEF79CFA53
:1059A00088F800A029785046012905D186F8009092
:1059B0003870072003F064FC206820F002002060AB
:1059C000002000E001E0FEF707FA5748613890F840
:1059D0003F00012845D15448613890F86300E0B396
:1059E00061480168614819B1017801291FD038E088
:1059F0005F490978012934D1017871BB80F800B082
:105A00005C4880F800B00120FEF766FA042088F8B0
:105A100000002878012806D186F800B00D203870E3
:105A2000072003F02DFC206840F0040018E080F807
:105A300000900020FEF750FA4E4981F8009088F857
:105A400000A02878012806D186F800900D20387033
:105A5000072003F015FC206800E002E020F00400BD
:105A600020603148613890F86400E8B3424801682A
:105A700042480029017802D0012944D0BBE081BB13
:105A800080F800B00120FEF727FA3D49484681F82A
:105A900000B03C4981F800903B4981F800903B49B7
:105AA00081F80090FEF798F93949284881F800906C
:105AB0000188491C018026490968C0F8031080F854
:105AC00002B02878012807D117480121613890F8E1
:105AD00064200846FEF768FA1448016841F008019E
